{
  "_format": "hh-sol-artifact-1",
  "contractName": "ExclusiveMint",
  "sourceName": "contracts/NFT.sol",
  "abi": [
    {
      "inputs": [
        {
          "internalType": "address",
          "name": "_rafflerContract",
          "type": "address"
        },
        {
          "internalType": "uint256",
          "name": "_raffleId",
          "type": "uint256"
        }
      ],
      "stateMutability": "nonpayable",
      "type": "constructor"
    },
    {
      "anonymous": false,
      "inputs": [
        {
          "indexed": true,
          "internalType": "address",
          "name": "owner",
          "type": "address"
        },
        {
          "indexed": true,
          "internalType": "address",
          "name": "approved",
          "type": "address"
        },
        {
          "indexed": true,
          "internalType": "uint256",
          "name": "tokenId",
          "type": "uint256"
        }
      ],
      "name": "Approval",
      "type": "event"
    },
    {
      "anonymous": false,
      "inputs": [
        {
          "indexed": true,
          "internalType": "address",
          "name": "owner",
          "type": "address"
        },
        {
          "indexed": true,
          "internalType": "address",
          "name": "operator",
          "type": "address"
        },
        {
          "indexed": false,
          "internalType": "bool",
          "name": "approved",
          "type": "bool"
        }
      ],
      "name": "ApprovalForAll",
      "type": "event"
    },
    {
      "anonymous": false,
      "inputs": [
        {
          "indexed": true,
          "internalType": "address",
          "name": "from",
          "type": "address"
        },
        {
          "indexed": true,
          "internalType": "address",
          "name": "to",
          "type": "address"
        },
        {
          "indexed": true,
          "internalType": "uint256",
          "name": "tokenId",
          "type": "uint256"
        }
      ],
      "name": "Transfer",
      "type": "event"
    },
    {
      "inputs": [
        {
          "internalType": "address",
          "name": "to",
          "type": "address"
        },
        {
          "internalType": "uint256",
          "name": "tokenId",
          "type": "uint256"
        }
      ],
      "name": "approve",
      "outputs": [],
      "stateMutability": "nonpayable",
      "type": "function"
    },
    {
      "inputs": [
        {
          "internalType": "address",
          "name": "owner",
          "type": "address"
        }
      ],
      "name": "balanceOf",
      "outputs": [
        {
          "internalType": "uint256",
          "name": "",
          "type": "uint256"
        }
      ],
      "stateMutability": "view",
      "type": "function"
    },
    {
      "inputs": [
        {
          "internalType": "uint256",
          "name": "tokenId",
          "type": "uint256"
        }
      ],
      "name": "getApproved",
      "outputs": [
        {
          "internalType": "address",
          "name": "",
          "type": "address"
        }
      ],
      "stateMutability": "view",
      "type": "function"
    },
    {
      "inputs": [
        {
          "internalType": "address",
          "name": "owner",
          "type": "address"
        },
        {
          "internalType": "address",
          "name": "operator",
          "type": "address"
        }
      ],
      "name": "isApprovedForAll",
      "outputs": [
        {
          "internalType": "bool",
          "name": "",
          "type": "bool"
        }
      ],
      "stateMutability": "view",
      "type": "function"
    },
    {
      "inputs": [],
      "name": "mint",
      "outputs": [],
      "stateMutability": "payable",
      "type": "function"
    },
    {
      "inputs": [],
      "name": "name",
      "outputs": [
        {
          "internalType": "string",
          "name": "",
          "type": "string"
        }
      ],
      "stateMutability": "view",
      "type": "function"
    },
    {
      "inputs": [
        {
          "internalType": "uint256",
          "name": "tokenId",
          "type": "uint256"
        }
      ],
      "name": "ownerOf",
      "outputs": [
        {
          "internalType": "address",
          "name": "",
          "type": "address"
        }
      ],
      "stateMutability": "view",
      "type": "function"
    },
    {
      "inputs": [],
      "name": "raffleId",
      "outputs": [
        {
          "internalType": "uint256",
          "name": "",
          "type": "uint256"
        }
      ],
      "stateMutability": "view",
      "type": "function"
    },
    {
      "inputs": [
        {
          "internalType": "address",
          "name": "from",
          "type": "address"
        },
        {
          "internalType": "address",
          "name": "to",
          "type": "address"
        },
        {
          "internalType": "uint256",
          "name": "tokenId",
          "type": "uint256"
        }
      ],
      "name": "safeTransferFrom",
      "outputs": [],
      "stateMutability": "nonpayable",
      "type": "function"
    },
    {
      "inputs": [
        {
          "internalType": "address",
          "name": "from",
          "type": "address"
        },
        {
          "internalType": "address",
          "name": "to",
          "type": "address"
        },
        {
          "internalType": "uint256",
          "name": "tokenId",
          "type": "uint256"
        },
        {
          "internalType": "bytes",
          "name": "_data",
          "type": "bytes"
        }
      ],
      "name": "safeTransferFrom",
      "outputs": [],
      "stateMutability": "nonpayable",
      "type": "function"
    },
    {
      "inputs": [
        {
          "internalType": "address",
          "name": "operator",
          "type": "address"
        },
        {
          "internalType": "bool",
          "name": "approved",
          "type": "bool"
        }
      ],
      "name": "setApprovalForAll",
      "outputs": [],
      "stateMutability": "nonpayable",
      "type": "function"
    },
    {
      "inputs": [
        {
          "internalType": "bytes4",
          "name": "interfaceId",
          "type": "bytes4"
        }
      ],
      "name": "supportsInterface",
      "outputs": [
        {
          "internalType": "bool",
          "name": "",
          "type": "bool"
        }
      ],
      "stateMutability": "view",
      "type": "function"
    },
    {
      "inputs": [],
      "name": "symbol",
      "outputs": [
        {
          "internalType": "string",
          "name": "",
          "type": "string"
        }
      ],
      "stateMutability": "view",
      "type": "function"
    },
    {
      "inputs": [
        {
          "internalType": "uint256",
          "name": "index",
          "type": "uint256"
        }
      ],
      "name": "tokenByIndex",
      "outputs": [
        {
          "internalType": "uint256",
          "name": "",
          "type": "uint256"
        }
      ],
      "stateMutability": "view",
      "type": "function"
    },
    {
      "inputs": [
        {
          "internalType": "address",
          "name": "owner",
          "type": "address"
        },
        {
          "internalType": "uint256",
          "name": "index",
          "type": "uint256"
        }
      ],
      "name": "tokenOfOwnerByIndex",
      "outputs": [
        {
          "internalType": "uint256",
          "name": "",
          "type": "uint256"
        }
      ],
      "stateMutability": "view",
      "type": "function"
    },
    {
      "inputs": [
        {
          "internalType": "uint256",
          "name": "tokenId",
          "type": "uint256"
        }
      ],
      "name": "tokenURI",
      "outputs": [
        {
          "internalType": "string",
          "name": "",
          "type": "string"
        }
      ],
      "stateMutability": "view",
      "type": "function"
    },
    {
      "inputs": [],
      "name": "totalSupply",
      "outputs": [
        {
          "internalType": "uint256",
          "name": "",
          "type": "uint256"
        }
      ],
      "stateMutability": "view",
      "type": "function"
    },
    {
      "inputs": [
        {
          "internalType": "address",
          "name": "from",
          "type": "address"
        },
        {
          "internalType": "address",
          "name": "to",
          "type": "address"
        },
        {
          "internalType": "uint256",
          "name": "tokenId",
          "type": "uint256"
        }
      ],
      "name": "transferFrom",
      "outputs": [],
      "stateMutability": "nonpayable",
      "type": "function"
    }
  ],
  "bytecode": "0x60806040523480156200001157600080fd5b506040516200353b3803806200353b833981810160405281019062000037919062000205565b6040518060400160405280600981526020017f4578636c757369766500000000000000000000000000000000000000000000008152506040518060400160405280600281526020017f41500000000000000000000000000000000000000000000000000000000000008152508160009080519060200190620000bb92919062000127565b508060019080519060200190620000d492919062000127565b50505081600a60006101000a81548173ffffffffffffffffffffffffffffffffffffffff021916908373ffffffffffffffffffffffffffffffffffffffff16021790555080600b8190555050506200031d565b828054620001359062000284565b90600052602060002090601f016020900481019282620001595760008555620001a5565b82601f106200017457805160ff1916838001178555620001a5565b82800160010185558215620001a5579182015b82811115620001a457825182559160200191906001019062000187565b5b509050620001b49190620001b8565b5090565b5b80821115620001d3576000816000905550600101620001b9565b5090565b600081519050620001e881620002e9565b92915050565b600081519050620001ff8162000303565b92915050565b600080604083850312156200021957600080fd5b60006200022985828601620001d7565b92505060206200023c85828601620001ee565b9150509250929050565b600062000253826200025a565b9050919050565b600073ffffffffffffffffffffffffffffffffffffffff82169050919050565b6000819050919050565b600060028204905060018216806200029d57607f821691505b60208210811415620002b457620002b3620002ba565b5b50919050565b7f4e487b7100000000000000000000000000000000000000000000000000000000600052602260045260246000fd5b620002f48162000246565b81146200030057600080fd5b50565b6200030e816200027a565b81146200031a57600080fd5b50565b61320e806200032d6000396000f3fe6080604052600436106101095760003560e01c80634f6ccce711610095578063a22cb46511610064578063a22cb46514610382578063b375603c146103ab578063b88d4fde146103d6578063c87b56dd146103ff578063e985e9c51461043c57610109565b80634f6ccce7146102a05780636352211e146102dd57806370a082311461031a57806395d89b411461035757610109565b80631249c58b116100dc5780631249c58b146101dc57806318160ddd146101e657806323b872dd146102115780632f745c591461023a57806342842e0e1461027757610109565b806301ffc9a71461010e57806306fdde031461014b578063081812fc14610176578063095ea7b3146101b3575b600080fd5b34801561011a57600080fd5b5061013560048036038101906101309190612257565b610479565b6040516101429190612680565b60405180910390f35b34801561015757600080fd5b506101606104f3565b60405161016d919061269b565b60405180910390f35b34801561018257600080fd5b5061019d600480360381019061019891906122a9565b610585565b6040516101aa9190612619565b60405180910390f35b3480156101bf57600080fd5b506101da60048036038101906101d591906121f2565b61060a565b005b6101e4610722565b005b3480156101f257600080fd5b506101fb610835565b60405161020891906128dd565b60405180910390f35b34801561021d57600080fd5b50610238600480360381019061023391906120ec565b610842565b005b34801561024657600080fd5b50610261600480360381019061025c91906121f2565b6108a2565b60405161026e91906128dd565b60405180910390f35b34801561028357600080fd5b5061029e600480360381019061029991906120ec565b610947565b005b3480156102ac57600080fd5b506102c760048036038101906102c291906122a9565b610967565b6040516102d491906128dd565b60405180910390f35b3480156102e957600080fd5b5061030460048036038101906102ff91906122a9565b6109fe565b6040516103119190612619565b60405180910390f35b34801561032657600080fd5b50610341600480360381019061033c9190612087565b610ab0565b60405161034e91906128dd565b60405180910390f35b34801561036357600080fd5b5061036c610b68565b604051610379919061269b565b60405180910390f35b34801561038e57600080fd5b506103a960048036038101906103a491906121b6565b610bfa565b005b3480156103b757600080fd5b506103c0610c10565b6040516103cd91906128dd565b60405180910390f35b3480156103e257600080fd5b506103fd60048036038101906103f8919061213b565b610c16565b005b34801561040b57600080fd5b50610426600480360381019061042191906122a9565b610c78565b604051610433919061269b565b60405180910390f35b34801561044857600080fd5b50610463600480360381019061045e91906120b0565b610d1f565b6040516104709190612680565b60405180910390f35b60007f780e9d63000000000000000000000000000000000000000000000000000000007bffffffffffffffffffffffffffffffffffffffffffffffffffffffff1916827bffffffffffffffffffffffffffffffffffffffffffffffffffffffff191614806104ec57506104eb82610db3565b5b9050919050565b60606000805461050290612b2b565b80601f016020809104026020016040519081016040528092919081815260200182805461052e90612b2b565b801561057b5780601f106105505761010080835404028352916020019161057b565b820191906000526020600020905b81548152906001019060200180831161055e57829003601f168201915b5050505050905090565b600061059082610e95565b6105cf576040517f08c379a00000000000000000000000000000000000000000000000000000000081526004016105c69061283d565b60405180910390fd5b6004600083815260200190815260200160002060009054906101000a900473ffffffffffffffffffffffffffffffffffffffff169050919050565b6000610615826109fe565b90508073ffffffffffffffffffffffffffffffffffffffff168373ffffffffffffffffffffffffffffffffffffffff161415610686576040517f08c379a000000000000000000000000000000000000000000000000000000000815260040161067d9061287d565b60405180910390fd5b8073ffffffffffffffffffffffffffffffffffffffff166106a5610f01565b73ffffffffffffffffffffffffffffffffffffffff1614806106d457506106d3816106ce610f01565b610d1f565b5b610713576040517f08c379a000000000000000000000000000000000000000000000000000000000815260040161070a906127bd565b60405180910390fd5b61071d8383610f09565b505050565b600a60009054906101000a900473ffffffffffffffffffffffffffffffffffffffff1673ffffffffffffffffffffffffffffffffffffffff1663bdd415af600b54336040518363ffffffff1660e01b81526004016107819291906128f8565b60206040518083038186803b15801561079957600080fd5b505afa1580156107ad573d6000803e3d6000fd5b505050506040513d601f19601f820116820180604052508101906107d1919061222e565b610810576040517f08c379a0000000000000000000000000000000000000000000000000000000008152600401610807906126bd565b60405180910390fd5b6000600161081c610835565b61082691906129ba565b90506108323382610fc2565b50565b6000600880549050905090565b61085361084d610f01565b82610fe0565b610892576040517f08c379a00000000000000000000000000000000000000000000000000000000081526004016108899061289d565b60405180910390fd5b61089d8383836110be565b505050565b60006108ad83610ab0565b82106108ee576040517f08c379a00000000000000000000000000000000000000000000000000000000081526004016108e5906126dd565b60405180910390fd5b600660008473ffffffffffffffffffffffffffffffffffffffff1673ffffffffffffffffffffffffffffffffffffffff168152602001908152602001600020600083815260200190815260200160002054905092915050565b61096283838360405180602001604052806000815250610c16565b505050565b6000610971610835565b82106109b2576040517f08c379a00000000000000000000000000000000000000000000000000000000081526004016109a9906128bd565b60405180910390fd5b600882815481106109ec577f4e487b7100000000000000000000000000000000000000000000000000000000600052603260045260246000fd5b90600052602060002001549050919050565b6000806002600084815260200190815260200160002060009054906101000a900473ffffffffffffffffffffffffffffffffffffffff169050600073ffffffffffffffffffffffffffffffffffffffff168173ffffffffffffffffffffffffffffffffffffffff161415610aa7576040517f08c379a0000000000000000000000000000000000000000000000000000000008152600401610a9e906127fd565b60405180910390fd5b80915050919050565b60008073ffffffffffffffffffffffffffffffffffffffff168273ffffffffffffffffffffffffffffffffffffffff161415610b21576040517f08c379a0000000000000000000000000000000000000000000000000000000008152600401610b18906127dd565b60405180910390fd5b600360008373ffffffffffffffffffffffffffffffffffffffff1673ffffffffffffffffffffffffffffffffffffffff168152602001908152602001600020549050919050565b606060018054610b7790612b2b565b80601f0160208091040260200160405190810160405280929190818152602001828054610ba390612b2b565b8015610bf05780601f10610bc557610100808354040283529160200191610bf0565b820191906000526020600020905b815481529060010190602001808311610bd357829003601f168201915b5050505050905090565b610c0c610c05610f01565b8383611325565b5050565b600b5481565b610c27610c21610f01565b83610fe0565b610c66576040517f08c379a0000000000000000000000000000000000000000000000000000000008152600401610c5d9061289d565b60405180910390fd5b610c7284848484611492565b50505050565b6060610c8382610e95565b610cc2576040517f08c379a0000000000000000000000000000000000000000000000000000000008152600401610cb99061285d565b60405180910390fd5b6000610ccc6114ee565b90506000815111610cec5760405180602001604052806000815250610d17565b80610cf684611505565b604051602001610d079291906125f5565b6040516020818303038152906040525b915050919050565b6000600560008473ffffffffffffffffffffffffffffffffffffffff1673ffffffffffffffffffffffffffffffffffffffff16815260200190815260200160002060008373ffffffffffffffffffffffffffffffffffffffff1673ffffffffffffffffffffffffffffffffffffffff16815260200190815260200160002060009054906101000a900460ff16905092915050565b60007f80ac58cd000000000000000000000000000000000000000000000000000000007bffffffffffffffffffffffffffffffffffffffffffffffffffffffff1916827bffffffffffffffffffffffffffffffffffffffffffffffffffffffff19161480610e7e57507f5b5e139f000000000000000000000000000000000000000000000000000000007bffffffffffffffffffffffffffffffffffffffffffffffffffffffff1916827bffffffffffffffffffffffffffffffffffffffffffffffffffffffff1916145b80610e8e5750610e8d826116b2565b5b9050919050565b60008073ffffffffffffffffffffffffffffffffffffffff166002600084815260200190815260200160002060009054906101000a900473ffffffffffffffffffffffffffffffffffffffff1673ffffffffffffffffffffffffffffffffffffffff1614159050919050565b600033905090565b816004600083815260200190815260200160002060006101000a81548173ffffffffffffffffffffffffffffffffffffffff021916908373ffffffffffffffffffffffffffffffffffffffff160217905550808273ffffffffffffffffffffffffffffffffffffffff16610f7c836109fe565b73ffffffffffffffffffffffffffffffffffffffff167f8c5be1e5ebec7d5bd14f71427d1e84f3dd0314c0f7b2291e5b200ac8c7c3b92560405160405180910390a45050565b610fdc82826040518060200160405280600081525061171c565b5050565b6000610feb82610e95565b61102a576040517f08c379a00000000000000000000000000000000000000000000000000000000081526004016110219061279d565b60405180910390fd5b6000611035836109fe565b90508073ffffffffffffffffffffffffffffffffffffffff168473ffffffffffffffffffffffffffffffffffffffff16148061107757506110768185610d1f565b5b806110b557508373ffffffffffffffffffffffffffffffffffffffff1661109d84610585565b73ffffffffffffffffffffffffffffffffffffffff16145b91505092915050565b8273ffffffffffffffffffffffffffffffffffffffff166110de826109fe565b73ffffffffffffffffffffffffffffffffffffffff1614611134576040517f08c379a000000000000000000000000000000000000000000000000000000000815260040161112b9061271d565b60405180910390fd5b600073ffffffffffffffffffffffffffffffffffffffff168273ffffffffffffffffffffffffffffffffffffffff1614156111a4576040517f08c379a000000000000000000000000000000000000000000000000000000000815260040161119b9061275d565b60405180910390fd5b6111af838383611777565b6111ba600082610f09565b6001600360008573ffffffffffffffffffffffffffffffffffffffff1673ffffffffffffffffffffffffffffffffffffffff168152602001908152602001600020600082825461120a9190612a41565b925050819055506001600360008473ffffffffffffffffffffffffffffffffffffffff1673ffffffffffffffffffffffffffffffffffffffff168152602001908152602001600020600082825461126191906129ba565b92505081905550816002600083815260200190815260200160002060006101000a81548173ffffffffffffffffffffffffffffffffffffffff021916908373ffffffffffffffffffffffffffffffffffffffff160217905550808273ffffffffffffffffffffffffffffffffffffffff168473ffffffffffffffffffffffffffffffffffffffff167fddf252ad1be2c89b69c2b068fc378daa952ba7f163c4a11628f55a4df523b3ef60405160405180910390a461132083838361188b565b505050565b8173ffffffffffffffffffffffffffffffffffffffff168373ffffffffffffffffffffffffffffffffffffffff161415611394576040517f08c379a000000000000000000000000000000000000000000000000000000000815260040161138b9061277d565b60405180910390fd5b80600560008573ffffffffffffffffffffffffffffffffffffffff1673ffffffffffffffffffffffffffffffffffffffff16815260200190815260200160002060008473ffffffffffffffffffffffffffffffffffffffff1673ffffffffffffffffffffffffffffffffffffffff16815260200190815260200160002060006101000a81548160ff0219169083151502179055508173ffffffffffffffffffffffffffffffffffffffff168373ffffffffffffffffffffffffffffffffffffffff167f17307eab39ab6107e8899845ad3d59bd9653f200f220920489ca2b5937696c31836040516114859190612680565b60405180910390a3505050565b61149d8484846110be565b6114a984848484611890565b6114e8576040517f08c379a00000000000000000000000000000000000000000000000000000000081526004016114df906126fd565b60405180910390fd5b50505050565b606060405180602001604052806000815250905090565b6060600082141561154d576040518060400160405280600181526020017f300000000000000000000000000000000000000000000000000000000000000081525090506116ad565b600082905060005b6000821461157f57808061156890612b8e565b915050600a826115789190612a10565b9150611555565b60008167ffffffffffffffff8111156115c1577f4e487b7100000000000000000000000000000000000000000000000000000000600052604160045260246000fd5b6040519080825280601f01601f1916602001820160405280156115f35781602001600182028036833780820191505090505b5090505b600085146116a65760018261160c9190612a41565b9150600a8561161b9190612bd7565b603061162791906129ba565b60f81b818381518110611663577f4e487b7100000000000000000000000000000000000000000000000000000000600052603260045260246000fd5b60200101907effffffffffffffffffffffffffffffffffffffffffffffffffffffffffffff1916908160001a905350600a8561169f9190612a10565b94506115f7565b8093505050505b919050565b60007f01ffc9a7000000000000000000000000000000000000000000000000000000007bffffffffffffffffffffffffffffffffffffffffffffffffffffffff1916827bffffffffffffffffffffffffffffffffffffffffffffffffffffffff1916149050919050565b6117268383611a27565b6117336000848484611890565b611772576040517f08c379a0000000000000000000000000000000000000000000000000000000008152600401611769906126fd565b60405180910390fd5b505050565b611782838383611c01565b600073ffffffffffffffffffffffffffffffffffffffff168373ffffffffffffffffffffffffffffffffffffffff1614156117c5576117c081611c06565b611804565b8173ffffffffffffffffffffffffffffffffffffffff168373ffffffffffffffffffffffffffffffffffffffff1614611803576118028382611c4f565b5b5b600073ffffffffffffffffffffffffffffffffffffffff168273ffffffffffffffffffffffffffffffffffffffff1614156118475761184281611dbc565b611886565b8273ffffffffffffffffffffffffffffffffffffffff168273ffffffffffffffffffffffffffffffffffffffff1614611885576118848282611eff565b5b5b505050565b505050565b60006118b18473ffffffffffffffffffffffffffffffffffffffff16611f7e565b15611a1a578373ffffffffffffffffffffffffffffffffffffffff1663150b7a026118da610f01565b8786866040518563ffffffff1660e01b81526004016118fc9493929190612634565b602060405180830381600087803b15801561191657600080fd5b505af192505050801561194757506040513d601f19601f820116820180604052508101906119449190612280565b60015b6119ca573d8060008114611977576040519150601f19603f3d011682016040523d82523d6000602084013e61197c565b606091505b506000815114156119c2576040517f08c379a00000000000000000000000000000000000000000000000000000000081526004016119b9906126fd565b60405180910390fd5b805181602001fd5b63150b7a0260e01b7bffffffffffffffffffffffffffffffffffffffffffffffffffffffff1916817bffffffffffffffffffffffffffffffffffffffffffffffffffffffff191614915050611a1f565b600190505b949350505050565b600073ffffffffffffffffffffffffffffffffffffffff168273ffffffffffffffffffffffffffffffffffffffff161415611a97576040517f08c379a0000000000000000000000000000000000000000000000000000000008152600401611a8e9061281d565b60405180910390fd5b611aa081610e95565b15611ae0576040517f08c379a0000000000000000000000000000000000000000000000000000000008152600401611ad79061273d565b60405180910390fd5b611aec60008383611777565b6001600360008473ffffffffffffffffffffffffffffffffffffffff1673ffffffffffffffffffffffffffffffffffffffff1681526020019081526020016000206000828254611b3c91906129ba565b92505081905550816002600083815260200190815260200160002060006101000a81548173ffffffffffffffffffffffffffffffffffffffff021916908373ffffffffffffffffffffffffffffffffffffffff160217905550808273ffffffffffffffffffffffffffffffffffffffff16600073ffffffffffffffffffffffffffffffffffffffff167fddf252ad1be2c89b69c2b068fc378daa952ba7f163c4a11628f55a4df523b3ef60405160405180910390a4611bfd6000838361188b565b5050565b505050565b6008805490506009600083815260200190815260200160002081905550600881908060018154018082558091505060019003906000526020600020016000909190919091505550565b60006001611c5c84610ab0565b611c669190612a41565b9050600060076000848152602001908152602001600020549050818114611d4b576000600660008673ffffffffffffffffffffffffffffffffffffffff1673ffffffffffffffffffffffffffffffffffffffff168152602001908152602001600020600084815260200190815260200160002054905080600660008773ffffffffffffffffffffffffffffffffffffffff1673ffffffffffffffffffffffffffffffffffffffff168152602001908152602001600020600084815260200190815260200160002081905550816007600083815260200190815260200160002081905550505b6007600084815260200190815260200160002060009055600660008573ffffffffffffffffffffffffffffffffffffffff1673ffffffffffffffffffffffffffffffffffffffff16815260200190815260200160002060008381526020019081526020016000206000905550505050565b60006001600880549050611dd09190612a41565b9050600060096000848152602001908152602001600020549050600060088381548110611e26577f4e487b7100000000000000000000000000000000000000000000000000000000600052603260045260246000fd5b906000526020600020015490508060088381548110611e6e577f4e487b7100000000000000000000000000000000000000000000000000000000600052603260045260246000fd5b906000526020600020018190555081600960008381526020019081526020016000208190555060096000858152602001908152602001600020600090556008805480611ee3577f4e487b7100000000000000000000000000000000000000000000000000000000600052603160045260246000fd5b6001900381819060005260206000200160009055905550505050565b6000611f0a83610ab0565b905081600660008573ffffffffffffffffffffffffffffffffffffffff1673ffffffffffffffffffffffffffffffffffffffff168152602001908152602001600020600083815260200190815260200160002081905550806007600084815260200190815260200160002081905550505050565b6000808273ffffffffffffffffffffffffffffffffffffffff163b119050919050565b6000611fb4611faf84612946565b612921565b905082815260208101848484011115611fcc57600080fd5b611fd7848285612ae9565b509392505050565b600081359050611fee8161317c565b92915050565b60008135905061200381613193565b92915050565b60008151905061201881613193565b92915050565b60008135905061202d816131aa565b92915050565b600081519050612042816131aa565b92915050565b600082601f83011261205957600080fd5b8135612069848260208601611fa1565b91505092915050565b600081359050612081816131c1565b92915050565b60006020828403121561209957600080fd5b60006120a784828501611fdf565b91505092915050565b600080604083850312156120c357600080fd5b60006120d185828601611fdf565b92505060206120e285828601611fdf565b9150509250929050565b60008060006060848603121561210157600080fd5b600061210f86828701611fdf565b935050602061212086828701611fdf565b925050604061213186828701612072565b9150509250925092565b6000806000806080858703121561215157600080fd5b600061215f87828801611fdf565b945050602061217087828801611fdf565b935050604061218187828801612072565b925050606085013567ffffffffffffffff81111561219e57600080fd5b6121aa87828801612048565b91505092959194509250565b600080604083850312156121c957600080fd5b60006121d785828601611fdf565b92505060206121e885828601611ff4565b9150509250929050565b6000806040838503121561220557600080fd5b600061221385828601611fdf565b925050602061222485828601612072565b9150509250929050565b60006020828403121561224057600080fd5b600061224e84828501612009565b91505092915050565b60006020828403121561226957600080fd5b60006122778482850161201e565b91505092915050565b60006020828403121561229257600080fd5b60006122a084828501612033565b91505092915050565b6000602082840312156122bb57600080fd5b60006122c984828501612072565b91505092915050565b6122db81612a75565b82525050565b6122ea81612a87565b82525050565b60006122fb82612977565b612305818561298d565b9350612315818560208601612af8565b61231e81612cc4565b840191505092915050565b600061233482612982565b61233e818561299e565b935061234e818560208601612af8565b61235781612cc4565b840191505092915050565b600061236d82612982565b61237781856129af565b9350612387818560208601612af8565b80840191505092915050565b60006123a060148361299e565b91506123ab82612cd5565b602082019050919050565b60006123c3602b8361299e565b91506123ce82612cfe565b604082019050919050565b60006123e660328361299e565b91506123f182612d4d565b604082019050919050565b600061240960258361299e565b915061241482612d9c565b604082019050919050565b600061242c601c8361299e565b915061243782612deb565b602082019050919050565b600061244f60248361299e565b915061245a82612e14565b604082019050919050565b600061247260198361299e565b915061247d82612e63565b602082019050919050565b6000612495602c8361299e565b91506124a082612e8c565b604082019050919050565b60006124b860388361299e565b91506124c382612edb565b604082019050919050565b60006124db602a8361299e565b91506124e682612f2a565b604082019050919050565b60006124fe60298361299e565b915061250982612f79565b604082019050919050565b600061252160208361299e565b915061252c82612fc8565b602082019050919050565b6000612544602c8361299e565b915061254f82612ff1565b604082019050919050565b6000612567602f8361299e565b915061257282613040565b604082019050919050565b600061258a60218361299e565b91506125958261308f565b604082019050919050565b60006125ad60318361299e565b91506125b8826130de565b604082019050919050565b60006125d0602c8361299e565b91506125db8261312d565b604082019050919050565b6125ef81612adf565b82525050565b60006126018285612362565b915061260d8284612362565b91508190509392505050565b600060208201905061262e60008301846122d2565b92915050565b600060808201905061264960008301876122d2565b61265660208301866122d2565b61266360408301856125e6565b818103606083015261267581846122f0565b905095945050505050565b600060208201905061269560008301846122e1565b92915050565b600060208201905081810360008301526126b58184612329565b905092915050565b600060208201905081810360008301526126d681612393565b9050919050565b600060208201905081810360008301526126f6816123b6565b9050919050565b60006020820190508181036000830152612716816123d9565b9050919050565b60006020820190508181036000830152612736816123fc565b9050919050565b600060208201905081810360008301526127568161241f565b9050919050565b6000602082019050818103600083015261277681612442565b9050919050565b6000602082019050818103600083015261279681612465565b9050919050565b600060208201905081810360008301526127b681612488565b9050919050565b600060208201905081810360008301526127d6816124ab565b9050919050565b600060208201905081810360008301526127f6816124ce565b9050919050565b60006020820190508181036000830152612816816124f1565b9050919050565b6000602082019050818103600083015261283681612514565b9050919050565b6000602082019050818103600083015261285681612537565b9050919050565b600060208201905081810360008301526128768161255a565b9050919050565b600060208201905081810360008301526128968161257d565b9050919050565b600060208201905081810360008301526128b6816125a0565b9050919050565b600060208201905081810360008301526128d6816125c3565b9050919050565b60006020820190506128f260008301846125e6565b92915050565b600060408201905061290d60008301856125e6565b61291a60208301846122d2565b9392505050565b600061292b61293c565b90506129378282612b5d565b919050565b6000604051905090565b600067ffffffffffffffff82111561296157612960612c95565b5b61296a82612cc4565b9050602081019050919050565b600081519050919050565b600081519050919050565b600082825260208201905092915050565b600082825260208201905092915050565b600081905092915050565b60006129c582612adf565b91506129d083612adf565b9250827fffffffffffffffffffffffffffffffffffffffffffffffffffffffffffffffff03821115612a0557612a04612c08565b5b828201905092915050565b6000612a1b82612adf565b9150612a2683612adf565b925082612a3657612a35612c37565b5b828204905092915050565b6000612a4c82612adf565b9150612a5783612adf565b925082821015612a6a57612a69612c08565b5b828203905092915050565b6000612a8082612abf565b9050919050565b60008115159050919050565b60007fffffffff0000000000000000000000000000000000000000000000000000000082169050919050565b600073ffffffffffffffffffffffffffffffffffffffff82169050919050565b6000819050919050565b82818337600083830152505050565b60005b83811015612b16578082015181840152602081019050612afb565b83811115612b25576000848401525b50505050565b60006002820490506001821680612b4357607f821691505b60208210811415612b5757612b56612c66565b5b50919050565b612b6682612cc4565b810181811067ffffffffffffffff82111715612b8557612b84612c95565b5b80604052505050565b6000612b9982612adf565b91507fffffffffffffffffffffffffffffffffffffffffffffffffffffffffffffffff821415612bcc57612bcb612c08565b5b600182019050919050565b6000612be282612adf565b9150612bed83612adf565b925082612bfd57612bfc612c37565b5b828206905092915050565b7f4e487b7100000000000000000000000000000000000000000000000000000000600052601160045260246000fd5b7f4e487b7100000000000000000000000000000000000000000000000000000000600052601260045260246000fd5b7f4e487b7100000000000000000000000000000000000000000000000000000000600052602260045260246000fd5b7f4e487b7100000000000000000000000000000000000000000000000000000000600052604160045260246000fd5b6000601f19601f8301169050919050565b7f596f7520617265206e6f7420612077696e6e6572000000000000000000000000600082015250565b7f455243373231456e756d657261626c653a206f776e657220696e646578206f7560008201527f74206f6620626f756e6473000000000000000000000000000000000000000000602082015250565b7f4552433732313a207472616e7366657220746f206e6f6e20455243373231526560008201527f63656976657220696d706c656d656e7465720000000000000000000000000000602082015250565b7f4552433732313a207472616e736665722066726f6d20696e636f72726563742060008201527f6f776e6572000000000000000000000000000000000000000000000000000000602082015250565b7f4552433732313a20746f6b656e20616c7265616479206d696e74656400000000600082015250565b7f4552433732313a207472616e7366657220746f20746865207a65726f2061646460008201527f7265737300000000000000000000000000000000000000000000000000000000602082015250565b7f4552433732313a20617070726f766520746f2063616c6c657200000000000000600082015250565b7f4552433732313a206f70657261746f7220717565727920666f72206e6f6e657860008201527f697374656e7420746f6b656e0000000000000000000000000000000000000000602082015250565b7f4552433732313a20617070726f76652063616c6c6572206973206e6f74206f7760008201527f6e6572206e6f7220617070726f76656420666f7220616c6c0000000000000000602082015250565b7f4552433732313a2062616c616e636520717565727920666f7220746865207a6560008201527f726f206164647265737300000000000000000000000000000000000000000000602082015250565b7f4552433732313a206f776e657220717565727920666f72206e6f6e657869737460008201527f656e7420746f6b656e0000000000000000000000000000000000000000000000602082015250565b7f4552433732313a206d696e7420746f20746865207a65726f2061646472657373600082015250565b7f4552433732313a20617070726f76656420717565727920666f72206e6f6e657860008201527f697374656e7420746f6b656e0000000000000000000000000000000000000000602082015250565b7f4552433732314d657461646174613a2055524920717565727920666f72206e6f60008201527f6e6578697374656e7420746f6b656e0000000000000000000000000000000000602082015250565b7f4552433732313a20617070726f76616c20746f2063757272656e74206f776e6560008201527f7200000000000000000000000000000000000000000000000000000000000000602082015250565b7f4552433732313a207472616e736665722063616c6c6572206973206e6f74206f60008201527f776e6572206e6f7220617070726f766564000000000000000000000000000000602082015250565b7f455243373231456e756d657261626c653a20676c6f62616c20696e646578206f60008201527f7574206f6620626f756e64730000000000000000000000000000000000000000602082015250565b61318581612a75565b811461319057600080fd5b50565b61319c81612a87565b81146131a757600080fd5b50565b6131b381612a93565b81146131be57600080fd5b50565b6131ca81612adf565b81146131d557600080fd5b5056fea26469706673582212200bc372d8ad09ff51dbdb86b84b327783316af7c536f17d4424c4e17380d25d3264736f6c63430008040033",
  "linkReferences": {},
  "deployedLinkReferences": {}
}