{
  "_format": "hh-sol-artifact-1",
  "contractName": "Raffler",
  "sourceName": "contracts/Raffle.sol",
  "abi": [
    {
      "inputs": [
        {
          "internalType": "address",
          "name": "_airnodeRrpAddress",
          "type": "address"
        },
        {
          "internalType": "address",
          "name": "_sponsorWallet",
          "type": "address"
        }
      ],
      "stateMutability": "nonpayable",
      "type": "constructor"
    },
    {
      "anonymous": false,
      "inputs": [
        {
          "indexed": true,
          "internalType": "uint256",
          "name": "_raffleId",
          "type": "uint256"
        }
      ],
      "name": "RaffleCreated",
      "type": "event"
    },
    {
      "anonymous": false,
      "inputs": [
        {
          "indexed": true,
          "internalType": "uint256",
          "name": "_raffleId",
          "type": "uint256"
        }
      ],
      "name": "WinnersPicked",
      "type": "event"
    },
    {
      "inputs": [],
      "name": "ANUairnodeAddress",
      "outputs": [
        {
          "internalType": "address",
          "name": "",
          "type": "address"
        }
      ],
      "stateMutability": "view",
      "type": "function"
    },
    {
      "inputs": [
        {
          "internalType": "address",
          "name": "",
          "type": "address"
        },
        {
          "internalType": "uint256",
          "name": "",
          "type": "uint256"
        }
      ],
      "name": "accountEntries",
      "outputs": [
        {
          "internalType": "uint256",
          "name": "",
          "type": "uint256"
        }
      ],
      "stateMutability": "view",
      "type": "function"
    },
    {
      "inputs": [
        {
          "internalType": "address",
          "name": "",
          "type": "address"
        },
        {
          "internalType": "uint256",
          "name": "",
          "type": "uint256"
        }
      ],
      "name": "accountRaffles",
      "outputs": [
        {
          "internalType": "uint256",
          "name": "",
          "type": "uint256"
        }
      ],
      "stateMutability": "view",
      "type": "function"
    },
    {
      "inputs": [],
      "name": "airnodeRrp",
      "outputs": [
        {
          "internalType": "contract IAirnodeRrpV0",
          "name": "",
          "type": "address"
        }
      ],
      "stateMutability": "view",
      "type": "function"
    },
    {
      "inputs": [],
      "name": "airnodeRrpAddress",
      "outputs": [
        {
          "internalType": "address",
          "name": "",
          "type": "address"
        }
      ],
      "stateMutability": "view",
      "type": "function"
    },
    {
      "inputs": [
        {
          "internalType": "uint256",
          "name": "_raffleId",
          "type": "uint256"
        }
      ],
      "name": "close",
      "outputs": [],
      "stateMutability": "payable",
      "type": "function"
    },
    {
      "inputs": [
        {
          "internalType": "uint256",
          "name": "_price",
          "type": "uint256"
        },
        {
          "internalType": "uint16",
          "name": "_winnerCount",
          "type": "uint16"
        },
        {
          "internalType": "string",
          "name": "_title",
          "type": "string"
        },
        {
          "internalType": "uint256",
          "name": "_startTime",
          "type": "uint256"
        },
        {
          "internalType": "uint256",
          "name": "_endTime",
          "type": "uint256"
        }
      ],
      "name": "create",
      "outputs": [],
      "stateMutability": "nonpayable",
      "type": "function"
    },
    {
      "inputs": [],
      "name": "endpointId",
      "outputs": [
        {
          "internalType": "bytes32",
          "name": "",
          "type": "bytes32"
        }
      ],
      "stateMutability": "view",
      "type": "function"
    },
    {
      "inputs": [
        {
          "internalType": "uint256",
          "name": "_raffleId",
          "type": "uint256"
        },
        {
          "internalType": "uint256",
          "name": "entryCount",
          "type": "uint256"
        }
      ],
      "name": "enter",
      "outputs": [],
      "stateMutability": "payable",
      "type": "function"
    },
    {
      "inputs": [
        {
          "internalType": "address",
          "name": "_account",
          "type": "address"
        }
      ],
      "name": "getAccountRaffles",
      "outputs": [
        {
          "components": [
            {
              "internalType": "uint256",
              "name": "raffleId",
              "type": "uint256"
            },
            {
              "internalType": "string",
              "name": "title",
              "type": "string"
            },
            {
              "internalType": "uint256",
              "name": "price",
              "type": "uint256"
            },
            {
              "internalType": "uint256",
              "name": "winnerCount",
              "type": "uint256"
            },
            {
              "internalType": "address[]",
              "name": "winners",
              "type": "address[]"
            },
            {
              "internalType": "address[]",
              "name": "entries",
              "type": "address[]"
            },
            {
              "internalType": "bool",
              "name": "open",
              "type": "bool"
            },
            {
              "internalType": "uint256",
              "name": "startTime",
              "type": "uint256"
            },
            {
              "internalType": "uint256",
              "name": "endTime",
              "type": "uint256"
            },
            {
              "internalType": "uint256",
              "name": "balance",
              "type": "uint256"
            },
            {
              "internalType": "address",
              "name": "owner",
              "type": "address"
            },
            {
              "internalType": "bool",
              "name": "airnodeSuccess",
              "type": "bool"
            }
          ],
          "internalType": "struct Raffler.Raffle[]",
          "name": "",
          "type": "tuple[]"
        }
      ],
      "stateMutability": "view",
      "type": "function"
    },
    {
      "inputs": [
        {
          "internalType": "address",
          "name": "_address",
          "type": "address"
        }
      ],
      "name": "getEnteredRaffles",
      "outputs": [
        {
          "internalType": "uint256[]",
          "name": "",
          "type": "uint256[]"
        }
      ],
      "stateMutability": "view",
      "type": "function"
    },
    {
      "inputs": [
        {
          "internalType": "uint256",
          "name": "_raffleId",
          "type": "uint256"
        }
      ],
      "name": "getEntries",
      "outputs": [
        {
          "internalType": "address[]",
          "name": "",
          "type": "address[]"
        }
      ],
      "stateMutability": "view",
      "type": "function"
    },
    {
      "inputs": [
        {
          "internalType": "uint256",
          "name": "_raffleId",
          "type": "uint256"
        }
      ],
      "name": "getWinners",
      "outputs": [
        {
          "internalType": "address[]",
          "name": "",
          "type": "address[]"
        }
      ],
      "stateMutability": "view",
      "type": "function"
    },
    {
      "inputs": [
        {
          "internalType": "uint256",
          "name": "_raffleId",
          "type": "uint256"
        },
        {
          "internalType": "address",
          "name": "_address",
          "type": "address"
        }
      ],
      "name": "isWinner",
      "outputs": [
        {
          "internalType": "bool",
          "name": "",
          "type": "bool"
        }
      ],
      "stateMutability": "view",
      "type": "function"
    },
    {
      "inputs": [
        {
          "internalType": "bytes32",
          "name": "",
          "type": "bytes32"
        }
      ],
      "name": "pendingRequestIds",
      "outputs": [
        {
          "internalType": "bool",
          "name": "",
          "type": "bool"
        }
      ],
      "stateMutability": "view",
      "type": "function"
    },
    {
      "inputs": [
        {
          "internalType": "bytes32",
          "name": "requestId",
          "type": "bytes32"
        },
        {
          "internalType": "bytes",
          "name": "data",
          "type": "bytes"
        }
      ],
      "name": "pickWinners",
      "outputs": [],
      "stateMutability": "nonpayable",
      "type": "function"
    },
    {
      "inputs": [
        {
          "internalType": "uint256",
          "name": "",
          "type": "uint256"
        }
      ],
      "name": "raffles",
      "outputs": [
        {
          "internalType": "uint256",
          "name": "raffleId",
          "type": "uint256"
        },
        {
          "internalType": "string",
          "name": "title",
          "type": "string"
        },
        {
          "internalType": "uint256",
          "name": "price",
          "type": "uint256"
        },
        {
          "internalType": "uint256",
          "name": "winnerCount",
          "type": "uint256"
        },
        {
          "internalType": "bool",
          "name": "open",
          "type": "bool"
        },
        {
          "internalType": "uint256",
          "name": "startTime",
          "type": "uint256"
        },
        {
          "internalType": "uint256",
          "name": "endTime",
          "type": "uint256"
        },
        {
          "internalType": "uint256",
          "name": "balance",
          "type": "uint256"
        },
        {
          "internalType": "address",
          "name": "owner",
          "type": "address"
        },
        {
          "internalType": "bool",
          "name": "airnodeSuccess",
          "type": "bool"
        }
      ],
      "stateMutability": "view",
      "type": "function"
    },
    {
      "inputs": [],
      "name": "sponsor",
      "outputs": [
        {
          "internalType": "address",
          "name": "",
          "type": "address"
        }
      ],
      "stateMutability": "view",
      "type": "function"
    },
    {
      "inputs": [],
      "name": "sponsorWallet",
      "outputs": [
        {
          "internalType": "address",
          "name": "",
          "type": "address"
        }
      ],
      "stateMutability": "view",
      "type": "function"
    }
  ],
  "bytecode": "0x60a0604052739d3c147ca16db954873a498e0af5852ab39139f2600960006101000a81548173ffffffffffffffffffffffffffffffffffffffff021916908373ffffffffffffffffffffffffffffffffffffffff1602179055507f27cc2713e7f968e4e86ed274a051a5c8aaee9cca66946f23af6f29ecea9704c360001b600a553480156200008d57600080fd5b5060405162003760380380620037608339818101604052810190620000b3919062000240565b818073ffffffffffffffffffffffffffffffffffffffff1660808173ffffffffffffffffffffffffffffffffffffffff1660601b815250508073ffffffffffffffffffffffffffffffffffffffff1663addf027c3060016040518363ffffffff1660e01b815260040162000129929190620002a3565b600060405180830381600087803b1580156200014457600080fd5b505af115801562000159573d6000803e3d6000fd5b505050505081600660006101000a81548173ffffffffffffffffffffffffffffffffffffffff021916908373ffffffffffffffffffffffffffffffffffffffff16021790555080600860006101000a81548173ffffffffffffffffffffffffffffffffffffffff021916908373ffffffffffffffffffffffffffffffffffffffff16021790555033600760006101000a81548173ffffffffffffffffffffffffffffffffffffffff021916908373ffffffffffffffffffffffffffffffffffffffff16021790555050506200032a565b6000815190506200023a8162000310565b92915050565b600080604083850312156200025457600080fd5b6000620002648582860162000229565b9250506020620002778582860162000229565b9150509250929050565b6200028c81620002d0565b82525050565b6200029d81620002e4565b82525050565b6000604082019050620002ba600083018562000281565b620002c9602083018462000292565b9392505050565b6000620002dd82620002f0565b9050919050565b60008115159050919050565b600073ffffffffffffffffffffffffffffffffffffffff82169050919050565b6200031b81620002d0565b81146200032757600080fd5b50565b60805160601c61340962000357600039600081816106c101528181610be1015261116f01526134096000f3fe6080604052600436106101145760003560e01c806371bab666116100a0578063bdd415af11610064578063bdd415af146103da578063bf90fb4e14610417578063c07724ec14610442578063d3549ebd1461046b578063e8ac2101146104a857610114565b806371bab666146102f157806377c936621461031c57806377e20df814610347578063960972c714610372578063ab98dcdd146103af57610114565b80633ddc5a69116100e75780633ddc5a69146101cb5780633f532acd146102085780635d4bc0ce146102315780636040a966146102775780636b1426a4146102b457610114565b8063011f2602146101195780630aebeb4e1461015657806323972aef146101725780632d02cafc1461018e575b600080fd5b34801561012557600080fd5b50610140600480360381019061013b919061211b565b6104d3565b60405161014d9190612ba6565b60405180910390f35b610170600480360381019061016b9190612242565b610504565b005b61018c60048036038101906101879190612336565b6108b5565b005b34801561019a57600080fd5b506101b560048036038101906101b0919061211b565b610b17565b6040516101c29190612ba6565b60405180910390f35b3480156101d757600080fd5b506101f260048036038101906101ed91906120f2565b610b48565b6040516101ff91906129bc565b60405180910390f35b34801561021457600080fd5b5061022f600480360381019061022a91906121ea565b610bdf565b005b34801561023d57600080fd5b5061025860048036038101906102539190612242565b610f93565b60405161026e9a99989796959493929190612bc1565b60405180910390f35b34801561028357600080fd5b5061029e60048036038101906102999190612198565b6110a9565b6040516102ab91906129de565b60405180910390f35b3480156102c057600080fd5b506102db60048036038101906102d69190612242565b6110c9565b6040516102e89190612978565b60405180910390f35b3480156102fd57600080fd5b5061030661116d565b6040516103139190612a4b565b60405180910390f35b34801561032857600080fd5b50610331611191565b60405161033e91906128e7565b60405180910390f35b34801561035357600080fd5b5061035c6111b7565b60405161036991906129f9565b60405180910390f35b34801561037e57600080fd5b50610399600480360381019061039491906120f2565b6111bd565b6040516103a6919061299a565b60405180910390f35b3480156103bb57600080fd5b506103c4611613565b6040516103d191906128e7565b60405180910390f35b3480156103e657600080fd5b5061040160048036038101906103fc919061226b565b611639565b60405161040e91906129de565b60405180910390f35b34801561042357600080fd5b5061042c611737565b60405161043991906128e7565b60405180910390f35b34801561044e57600080fd5b50610469600480360381019061046491906122a7565b61175d565b005b34801561047757600080fd5b50610492600480360381019061048d9190612242565b611b36565b60405161049f9190612978565b60405180910390f35b3480156104b457600080fd5b506104bd611bda565b6040516104ca91906128e7565b60405180910390f35b600360205281600052604060002081815481106104ef57600080fd5b90600052602060002001600091509150505481565b60006001600083815260200190815260200160002090508060060160009054906101000a900460ff1661056c576040517f08c379a000000000000000000000000000000000000000000000000000000000815260040161056390612b46565b60405180910390fd5b6000816005018054905014156105bc5760008160060160006101000a81548160ff021916908315150217905550600181600a0160146101000a81548160ff021916908315150217905550506108b2565b80600301548160050180549050101561060a576040517f08c379a000000000000000000000000000000000000000000000000000000000815260040161060190612ae6565b60405180910390fd5b66038d7ea4c68000341015610654576040517f08c379a000000000000000000000000000000000000000000000000000000000815260040161064b90612b26565b60405180910390fd5b600860009054906101000a900473ffffffffffffffffffffffffffffffffffffffff1673ffffffffffffffffffffffffffffffffffffffff166108fc349081150290604051600060405180830381858888f193505050501580156106bc573d6000803e3d6000fd5b5060007f000000000000000000000000000000000000000000000000000000000000000073ffffffffffffffffffffffffffffffffffffffff16636e6be03f600960009054906101000a900473ffffffffffffffffffffffffffffffffffffffff16600a54600760009054906101000a900473ffffffffffffffffffffffffffffffffffffffff16600860009054906101000a900473ffffffffffffffffffffffffffffffffffffffff1630633f532acd60e01b7f31750000000000000000000000000000000000000000000000000000000000007f73697a65000000000000000000000000000000000000000000000000000000008b600301546040516020016107c993929190612a14565b6040516020818303038152906040526040518863ffffffff1660e01b81526004016107fa9796959493929190612902565b602060405180830381600087803b15801561081457600080fd5b505af1158015610828573d6000803e3d6000fd5b505050506040513d601f19601f8201168201806040525081019061084c91906121c1565b905060016004600083815260200190815260200160002060006101000a81548160ff02191690831515021790555082600560008381526020019081526020016000208190555060008260060160006101000a81548160ff02191690831515021790555050505b50565b60006001600084815260200190815260200160002090508060060160009054906101000a900460ff1661091d576040517f08c379a000000000000000000000000000000000000000000000000000000000815260040161091490612b46565b60405180910390fd5b6001821015610961576040517f08c379a000000000000000000000000000000000000000000000000000000000815260040161095890612ac6565b60405180910390fd5b80600701544210158015610979575080600801544211155b6109b8576040517f08c379a00000000000000000000000000000000000000000000000000000000081526004016109af90612b46565b60405180910390fd5b8181600201546109c89190612e41565b3414610a09576040517f08c379a0000000000000000000000000000000000000000000000000000000008152600401610a0090612b86565b60405180910390fd5b34816009016000828254610a1d9190612deb565b9250508190555060005b82811015610aa75781600501339080600181540180825580915050600190039060005260206000200160009091909190916101000a81548173ffffffffffffffffffffffffffffffffffffffff021916908373ffffffffffffffffffffffffffffffffffffffff1602179055508080610a9f90613024565b915050610a27565b50600360003373ffffffffffffffffffffffffffffffffffffffff1673ffffffffffffffffffffffffffffffffffffffff16815260200190815260200160002081600001549080600181540180825580915050600190039060005260206000200160009091909190915055505050565b60026020528160005260406000208181548110610b3357600080fd5b90600052602060002001600091509150505481565b6060600360008373ffffffffffffffffffffffffffffffffffffffff1673ffffffffffffffffffffffffffffffffffffffff168152602001908152602001600020805480602002602001604051908101604052809291908181526020018280548015610bd357602002820191906000526020600020905b815481526020019060010190808311610bbf575b50505050509050919050565b7f000000000000000000000000000000000000000000000000000000000000000073ffffffffffffffffffffffffffffffffffffffff163373ffffffffffffffffffffffffffffffffffffffff1614610c6d576040517f08c379a0000000000000000000000000000000000000000000000000000000008152600401610c6490612a66565b60405180910390fd5b6004600084815260200190815260200160002060009054906101000a900460ff16610ccd576040517f08c379a0000000000000000000000000000000000000000000000000000000008152600401610cc490612b06565b60405180910390fd5b6004600084815260200190815260200160002060006101000a81549060ff021916905560006001600060056000878152602001908152602001600020548152602001908152602001600020905080600a0160149054906101000a900460ff1615610d6c576040517f08c379a0000000000000000000000000000000000000000000000000000000008152600401610d6390612aa6565b60405180910390fd5b60008383810190610d7d9190612157565b905060005b8151811015610ece5760008360050180549050838381518110610dce577f4e487b7100000000000000000000000000000000000000000000000000000000600052603260045260246000fd5b6020026020010151610de0919061306d565b905083600401846005018281548110610e22577f4e487b7100000000000000000000000000000000000000000000000000000000600052603260045260246000fd5b9060005260206000200160009054906101000a900473ffffffffffffffffffffffffffffffffffffffff169080600181540180825580915050600190039060005260206000200160009091909190916101000a81548173ffffffffffffffffffffffffffffffffffffffff021916908373ffffffffffffffffffffffffffffffffffffffff160217905550610eba8185600501611c00565b508080610ec690613024565b915050610d82565b50600182600a0160146101000a81548160ff02191690831515021790555081600001547fda541f4e032481ebcbe0e277c90af3e48bbec6dcf71ee22596090af8b6cfbf2660405160405180910390a281600a0160009054906101000a900473ffffffffffffffffffffffffffffffffffffffff1673ffffffffffffffffffffffffffffffffffffffff166108fc83600901549081150290604051600060405180830381858888f19350505050158015610f8b573d6000803e3d6000fd5b505050505050565b6001602052806000526040600020600091509050806000015490806001018054610fbc90612fc1565b80601f0160208091040260200160405190810160405280929190818152602001828054610fe890612fc1565b80156110355780601f1061100a57610100808354040283529160200191611035565b820191906000526020600020905b81548152906001019060200180831161101857829003601f168201915b5050505050908060020154908060030154908060060160009054906101000a900460ff169080600701549080600801549080600901549080600a0160009054906101000a900473ffffffffffffffffffffffffffffffffffffffff169080600a0160149054906101000a900460ff1690508a565b60046020528060005260406000206000915054906101000a900460ff1681565b60606001600083815260200190815260200160002060040180548060200260200160405190810160405280929190818152602001828054801561116157602002820191906000526020600020905b8160009054906101000a900473ffffffffffffffffffffffffffffffffffffffff1673ffffffffffffffffffffffffffffffffffffffff1681526020019060010190808311611117575b50505050509050919050565b7f000000000000000000000000000000000000000000000000000000000000000081565b600760009054906101000a900473ffffffffffffffffffffffffffffffffffffffff1681565b600a5481565b60606000600260008473ffffffffffffffffffffffffffffffffffffffff1673ffffffffffffffffffffffffffffffffffffffff16815260200190815260200160002080548060200260200160405190810160405280929190818152602001828054801561124a57602002820191906000526020600020905b815481526020019060010190808311611236575b505050505090506000815167ffffffffffffffff811115611294577f4e487b7100000000000000000000000000000000000000000000000000000000600052604160045260246000fd5b6040519080825280602002602001820160405280156112cd57816020015b6112ba611d99565b8152602001906001900390816112b25790505b50905060005b82518110156116085760016000848381518110611319577f4e487b7100000000000000000000000000000000000000000000000000000000600052603260045260246000fd5b60200260200101518152602001908152602001600020604051806101800160405290816000820154815260200160018201805461135590612fc1565b80601f016020809104026020016040519081016040528092919081815260200182805461138190612fc1565b80156113ce5780601f106113a3576101008083540402835291602001916113ce565b820191906000526020600020905b8154815290600101906020018083116113b157829003601f168201915b5050505050815260200160028201548152602001600382015481526020016004820180548060200260200160405190810160405280929190818152602001828054801561147057602002820191906000526020600020905b8160009054906101000a900473ffffffffffffffffffffffffffffffffffffffff1673ffffffffffffffffffffffffffffffffffffffff1681526020019060010190808311611426575b50505050508152602001600582018054806020026020016040519081016040528092919081815260200182805480156114fe57602002820191906000526020600020905b8160009054906101000a900473ffffffffffffffffffffffffffffffffffffffff1673ffffffffffffffffffffffffffffffffffffffff16815260200190600101908083116114b4575b505050505081526020016006820160009054906101000a900460ff16151515158152602001600782015481526020016008820154815260200160098201548152602001600a820160009054906101000a900473ffffffffffffffffffffffffffffffffffffffff1673ffffffffffffffffffffffffffffffffffffffff1673ffffffffffffffffffffffffffffffffffffffff168152602001600a820160149054906101000a900460ff1615151515815250508282815181106115ea577f4e487b7100000000000000000000000000000000000000000000000000000000600052603260045260246000fd5b6020026020010181905250808061160090613024565b9150506112d3565b508092505050919050565b600960009054906101000a900473ffffffffffffffffffffffffffffffffffffffff1681565b600080600090505b600160008581526020019081526020016000206004018054905081101561172b578273ffffffffffffffffffffffffffffffffffffffff166001600086815260200190815260200160002060040182815481106116c7577f4e487b7100000000000000000000000000000000000000000000000000000000600052603260045260246000fd5b9060005260206000200160009054906101000a900473ffffffffffffffffffffffffffffffffffffffff1673ffffffffffffffffffffffffffffffffffffffff161415611718576001915050611731565b808061172390613024565b915050611641565b50600090505b92915050565b600860009054906101000a900473ffffffffffffffffffffffffffffffffffffffff1681565b60008461ffff16116117a4576040517f08c379a000000000000000000000000000000000000000000000000000000000815260040161179b90612b66565b60405180910390fd5b603c816117b19190612deb565b42106117f2576040517f08c379a00000000000000000000000000000000000000000000000000000000081526004016117e990612a86565b60405180910390fd5b6117fc6000611d75565b60006040518061018001604052806118146000611d8b565b81526020018581526020018781526020018661ffff168152602001600067ffffffffffffffff811115611870577f4e487b7100000000000000000000000000000000000000000000000000000000600052604160045260246000fd5b60405190808252806020026020018201604052801561189e5781602001602082028036833780820191505090505b508152602001600067ffffffffffffffff8111156118e5577f4e487b7100000000000000000000000000000000000000000000000000000000600052604160045260246000fd5b6040519080825280602002602001820160405280156119135781602001602082028036833780820191505090505b508152602001600115158152602001848152602001838152602001600081526020013373ffffffffffffffffffffffffffffffffffffffff168152602001600015158152509050806001600083600001518152602001908152602001600020600082015181600001556020820151816001019080519060200190611998929190611e14565b50604082015181600201556060820151816003015560808201518160040190805190602001906119c9929190611e9a565b5060a08201518160050190805190602001906119e6929190611e9a565b5060c08201518160060160006101000a81548160ff02191690831515021790555060e082015181600701556101008201518160080155610120820151816009015561014082015181600a0160006101000a81548173ffffffffffffffffffffffffffffffffffffffff021916908373ffffffffffffffffffffffffffffffffffffffff16021790555061016082015181600a0160146101000a81548160ff021916908315150217905550905050600260003373ffffffffffffffffffffffffffffffffffffffff1673ffffffffffffffffffffffffffffffffffffffff1681526020019081526020016000208160000151908060018154018082558091505060019003906000526020600020016000909190919091505580600001517f0b5745354685a046e72f24602bcf00fa0ee07f0bf511afb5f2d3ab636241e41b60405160405180910390a2505050505050565b606060016000838152602001908152602001600020600501805480602002602001604051908101604052809291908181526020018280548015611bce57602002820191906000526020600020905b8160009054906101000a900473ffffffffffffffffffffffffffffffffffffffff1673ffffffffffffffffffffffffffffffffffffffff1681526020019060010190808311611b84575b50505050509050919050565b600660009054906101000a900473ffffffffffffffffffffffffffffffffffffffff1681565b80805490508210611c1057600080fd5b8060018280549050611c229190612e9b565b81548110611c59577f4e487b7100000000000000000000000000000000000000000000000000000000600052603260045260246000fd5b9060005260206000200160009054906101000a900473ffffffffffffffffffffffffffffffffffffffff16818381548110611cbd577f4e487b7100000000000000000000000000000000000000000000000000000000600052603260045260246000fd5b9060005260206000200160006101000a81548173ffffffffffffffffffffffffffffffffffffffff021916908373ffffffffffffffffffffffffffffffffffffffff16021790555080805480611d3c577f4e487b7100000000000000000000000000000000000000000000000000000000600052603160045260246000fd5b6001900381819060005260206000200160006101000a81549073ffffffffffffffffffffffffffffffffffffffff021916905590555050565b6001816000016000828254019250508190555050565b600081600001549050919050565b604051806101800160405280600081526020016060815260200160008152602001600081526020016060815260200160608152602001600015158152602001600081526020016000815260200160008152602001600073ffffffffffffffffffffffffffffffffffffffff1681526020016000151581525090565b828054611e2090612fc1565b90600052602060002090601f016020900481019282611e425760008555611e89565b82601f10611e5b57805160ff1916838001178555611e89565b82800160010185558215611e89579182015b82811115611e88578251825591602001919060010190611e6d565b5b509050611e969190611f24565b5090565b828054828255906000526020600020908101928215611f13579160200282015b82811115611f125782518260006101000a81548173ffffffffffffffffffffffffffffffffffffffff021916908373ffffffffffffffffffffffffffffffffffffffff16021790555091602001919060010190611eba565b5b509050611f209190611f24565b5090565b5b80821115611f3d576000816000905550600101611f25565b5090565b6000611f54611f4f84612c89565b612c64565b90508083825260208201905082856020860282011115611f7357600080fd5b60005b85811015611fa35781611f8988826120dd565b845260208401935060208301925050600181019050611f76565b5050509392505050565b6000611fc0611fbb84612cb5565b612c64565b905082815260208101848484011115611fd857600080fd5b611fe3848285612f7f565b509392505050565b600081359050611ffa81613377565b92915050565b600082601f83011261201157600080fd5b8135612021848260208601611f41565b91505092915050565b6000813590506120398161338e565b92915050565b60008151905061204e8161338e565b92915050565b60008083601f84011261206657600080fd5b8235905067ffffffffffffffff81111561207f57600080fd5b60208301915083600182028301111561209757600080fd5b9250929050565b600082601f8301126120af57600080fd5b81356120bf848260208601611fad565b91505092915050565b6000813590506120d7816133a5565b92915050565b6000813590506120ec816133bc565b92915050565b60006020828403121561210457600080fd5b600061211284828501611feb565b91505092915050565b6000806040838503121561212e57600080fd5b600061213c85828601611feb565b925050602061214d858286016120dd565b9150509250929050565b60006020828403121561216957600080fd5b600082013567ffffffffffffffff81111561218357600080fd5b61218f84828501612000565b91505092915050565b6000602082840312156121aa57600080fd5b60006121b88482850161202a565b91505092915050565b6000602082840312156121d357600080fd5b60006121e18482850161203f565b91505092915050565b6000806000604084860312156121ff57600080fd5b600061220d8682870161202a565b935050602084013567ffffffffffffffff81111561222a57600080fd5b61223686828701612054565b92509250509250925092565b60006020828403121561225457600080fd5b6000612262848285016120dd565b91505092915050565b6000806040838503121561227e57600080fd5b600061228c858286016120dd565b925050602061229d85828601611feb565b9150509250929050565b600080600080600060a086880312156122bf57600080fd5b60006122cd888289016120dd565b95505060206122de888289016120c8565b945050604086013567ffffffffffffffff8111156122fb57600080fd5b6123078882890161209e565b9350506060612318888289016120dd565b9250506080612329888289016120dd565b9150509295509295909350565b6000806040838503121561234957600080fd5b6000612357858286016120dd565b9250506020612368858286016120dd565b9150509250929050565b600061237e83836123b6565b60208301905092915050565b600061239683836127b7565b905092915050565b60006123aa83836128c9565b60208301905092915050565b6123bf81612ecf565b82525050565b6123ce81612ecf565b82525050565b60006123df82612d16565b6123e98185612d74565b93506123f483612ce6565b8060005b8381101561242557815161240c8882612372565b975061241783612d4d565b9250506001810190506123f8565b5085935050505092915050565b600061243d82612d16565b6124478185612d85565b935061245283612ce6565b8060005b8381101561248357815161246a8882612372565b975061247583612d4d565b925050600181019050612456565b5085935050505092915050565b600061249b82612d21565b6124a58185612d96565b9350836020820285016124b785612cf6565b8060005b858110156124f357848403895281516124d4858261238a565b94506124df83612d5a565b925060208a019950506001810190506124bb565b50829750879550505050505092915050565b600061251082612d2c565b61251a8185612da7565b935061252583612d06565b8060005b8381101561255657815161253d888261239e565b975061254883612d67565b925050600181019050612529565b5085935050505092915050565b61256c81612ee1565b82525050565b61257b81612ee1565b82525050565b61258a81612eed565b82525050565b61259981612ef7565b82525050565b60006125aa82612d37565b6125b48185612db8565b93506125c4818560208601612f8e565b6125cd8161315a565b840191505092915050565b6125e181612f5b565b82525050565b60006125f282612d42565b6125fc8185612dc9565b935061260c818560208601612f8e565b6126158161315a565b840191505092915050565b600061262b82612d42565b6126358185612dda565b9350612645818560208601612f8e565b61264e8161315a565b840191505092915050565b6000612666601683612dda565b91506126718261316b565b602082019050919050565b6000612689602283612dda565b915061269482613194565b604082019050919050565b60006126ac601683612dda565b91506126b7826131e3565b602082019050919050565b60006126cf601e83612dda565b91506126da8261320c565b602082019050919050565b60006126f2601283612dda565b91506126fd82613235565b602082019050919050565b6000612715601483612dda565b91506127208261325e565b602082019050919050565b6000612738602c83612dda565b915061274382613287565b604082019050919050565b600061275b601083612dda565b9150612766826132d6565b602082019050919050565b600061277e602383612dda565b9150612789826132ff565b604082019050919050565b60006127a1601a83612dda565b91506127ac8261334e565b602082019050919050565b6000610180830160008301516127d060008601826128c9565b50602083015184820360208601526127e882826125e7565b91505060408301516127fd60408601826128c9565b50606083015161281060608601826128c9565b506080830151848203608086015261282882826123d4565b91505060a083015184820360a086015261284282826123d4565b91505060c083015161285760c0860182612563565b5060e083015161286a60e08601826128c9565b5061010083015161287f6101008601826128c9565b506101208301516128946101208601826128c9565b506101408301516128a96101408601826123b6565b506101608301516128be610160860182612563565b508091505092915050565b6128d281612f51565b82525050565b6128e181612f51565b82525050565b60006020820190506128fc60008301846123c5565b92915050565b600060e082019050612917600083018a6123c5565b6129246020830189612581565b61293160408301886123c5565b61293e60608301876123c5565b61294b60808301866123c5565b61295860a0830185612590565b81810360c083015261296a818461259f565b905098975050505050505050565b600060208201905081810360008301526129928184612432565b905092915050565b600060208201905081810360008301526129b48184612490565b905092915050565b600060208201905081810360008301526129d68184612505565b905092915050565b60006020820190506129f36000830184612572565b92915050565b6000602082019050612a0e6000830184612581565b92915050565b6000606082019050612a296000830186612581565b612a366020830185612581565b612a4360408301846128d8565b949350505050565b6000602082019050612a6060008301846125d8565b92915050565b60006020820190508181036000830152612a7f81612659565b9050919050565b60006020820190508181036000830152612a9f8161267c565b9050919050565b60006020820190508181036000830152612abf8161269f565b9050919050565b60006020820190508181036000830152612adf816126c2565b9050919050565b60006020820190508181036000830152612aff816126e5565b9050919050565b60006020820190508181036000830152612b1f81612708565b9050919050565b60006020820190508181036000830152612b3f8161272b565b9050919050565b60006020820190508181036000830152612b5f8161274e565b9050919050565b60006020820190508181036000830152612b7f81612771565b9050919050565b60006020820190508181036000830152612b9f81612794565b9050919050565b6000602082019050612bbb60008301846128d8565b92915050565b600061014082019050612bd7600083018d6128d8565b8181036020830152612be9818c612620565b9050612bf8604083018b6128d8565b612c05606083018a6128d8565b612c126080830189612572565b612c1f60a08301886128d8565b612c2c60c08301876128d8565b612c3960e08301866128d8565b612c476101008301856123c5565b612c55610120830184612572565b9b9a5050505050505050505050565b6000612c6e612c7f565b9050612c7a8282612ff3565b919050565b6000604051905090565b600067ffffffffffffffff821115612ca457612ca361312b565b5b602082029050602081019050919050565b600067ffffffffffffffff821115612cd057612ccf61312b565b5b612cd98261315a565b9050602081019050919050565b6000819050602082019050919050565b6000819050602082019050919050565b6000819050602082019050919050565b600081519050919050565b600081519050919050565b600081519050919050565b600081519050919050565b600081519050919050565b6000602082019050919050565b6000602082019050919050565b6000602082019050919050565b600082825260208201905092915050565b600082825260208201905092915050565b600082825260208201905092915050565b600082825260208201905092915050565b600082825260208201905092915050565b600082825260208201905092915050565b600082825260208201905092915050565b6000612df682612f51565b9150612e0183612f51565b9250827fffffffffffffffffffffffffffffffffffffffffffffffffffffffffffffffff03821115612e3657612e3561309e565b5b828201905092915050565b6000612e4c82612f51565b9150612e5783612f51565b9250817fffffffffffffffffffffffffffffffffffffffffffffffffffffffffffffffff0483118215151615612e9057612e8f61309e565b5b828202905092915050565b6000612ea682612f51565b9150612eb183612f51565b925082821015612ec457612ec361309e565b5b828203905092915050565b6000612eda82612f31565b9050919050565b60008115159050919050565b6000819050919050565b60007fffffffff0000000000000000000000000000000000000000000000000000000082169050919050565b600061ffff82169050919050565b600073ffffffffffffffffffffffffffffffffffffffff82169050919050565b6000819050919050565b6000612f6682612f6d565b9050919050565b6000612f7882612f31565b9050919050565b82818337600083830152505050565b60005b83811015612fac578082015181840152602081019050612f91565b83811115612fbb576000848401525b50505050565b60006002820490506001821680612fd957607f821691505b60208210811415612fed57612fec6130fc565b5b50919050565b612ffc8261315a565b810181811067ffffffffffffffff8211171561301b5761301a61312b565b5b80604052505050565b600061302f82612f51565b91507fffffffffffffffffffffffffffffffffffffffffffffffffffffffffffffffff8214156130625761306161309e565b5b600182019050919050565b600061307882612f51565b915061308383612f51565b925082613093576130926130cd565b5b828206905092915050565b7f4e487b7100000000000000000000000000000000000000000000000000000000600052601160045260246000fd5b7f4e487b7100000000000000000000000000000000000000000000000000000000600052601260045260246000fd5b7f4e487b7100000000000000000000000000000000000000000000000000000000600052602260045260246000fd5b7f4e487b7100000000000000000000000000000000000000000000000000000000600052604160045260246000fd5b6000601f19601f8301169050919050565b7f43616c6c6572206e6f74204169726e6f64652052525000000000000000000000600082015250565b7f526166666c65206d757374206c617374206174206c656173742031206d696e7560008201527f7465000000000000000000000000000000000000000000000000000000000000602082015250565b7f57696e6e65727320616c7265616479207069636b656400000000000000000000600082015250565b7f456e74727920636f756e74206d757374206265206174206c6561737420310000600082015250565b7f4e6f7420656e6f75676820656e74726965730000000000000000000000000000600082015250565b7f4e6f20737563682072657175657374206d616465000000000000000000000000600082015250565b7f506c656173652073656e6420736f6d652066756e647320746f2074686520737060008201527f6f6e736f722077616c6c65740000000000000000000000000000000000000000602082015250565b7f526166666c6520697320636c6f73656400000000000000000000000000000000600082015250565b7f57696e6e657220636f756e74206d75737420626520677265617465722074686160008201527f6e20300000000000000000000000000000000000000000000000000000000000602082015250565b7f456e74727920707269636520646f6573206e6f74206d61746368000000000000600082015250565b61338081612ecf565b811461338b57600080fd5b50565b61339781612eed565b81146133a257600080fd5b50565b6133ae81612f23565b81146133b957600080fd5b50565b6133c581612f51565b81146133d057600080fd5b5056fea2646970667358221220512bd842dc15acc8f5c11d22f7120f54c92b837bcb72afecb6f88339a1e4eccf64736f6c63430008040033",
  "linkReferences": {},
  "deployedLinkReferences": {}
}