{
  "_format": "hh-sol-artifact-1",
  "contractName": "Raffler",
  "sourceName": "contracts/Raffle.sol",
  "abi": [
    {
      "inputs": [
        {
          "internalType": "address",
          "name": "_airnodeRrpAddress",
          "type": "address"
        },
        {
          "internalType": "address",
          "name": "_sponsorWallet",
          "type": "address"
        }
      ],
      "stateMutability": "nonpayable",
      "type": "constructor"
    },
    {
      "anonymous": false,
      "inputs": [
        {
          "indexed": true,
          "internalType": "uint256",
          "name": "_raffleId",
          "type": "uint256"
        }
      ],
      "name": "RaffleCreated",
      "type": "event"
    },
    {
      "anonymous": false,
      "inputs": [
        {
          "indexed": true,
          "internalType": "uint256",
          "name": "_raffleId",
          "type": "uint256"
        }
      ],
      "name": "WinnersPicked",
      "type": "event"
    },
    {
      "inputs": [],
      "name": "ANUairnodeAddress",
      "outputs": [
        {
          "internalType": "address",
          "name": "",
          "type": "address"
        }
      ],
      "stateMutability": "view",
      "type": "function"
    },
    {
      "inputs": [
        {
          "internalType": "address",
          "name": "",
          "type": "address"
        },
        {
          "internalType": "uint256",
          "name": "",
          "type": "uint256"
        }
      ],
      "name": "accountEntries",
      "outputs": [
        {
          "internalType": "uint256",
          "name": "",
          "type": "uint256"
        }
      ],
      "stateMutability": "view",
      "type": "function"
    },
    {
      "inputs": [
        {
          "internalType": "address",
          "name": "",
          "type": "address"
        },
        {
          "internalType": "uint256",
          "name": "",
          "type": "uint256"
        }
      ],
      "name": "accountRaffles",
      "outputs": [
        {
          "internalType": "uint256",
          "name": "",
          "type": "uint256"
        }
      ],
      "stateMutability": "view",
      "type": "function"
    },
    {
      "inputs": [],
      "name": "airnodeRrp",
      "outputs": [
        {
          "internalType": "contract IAirnodeRrpV0",
          "name": "",
          "type": "address"
        }
      ],
      "stateMutability": "view",
      "type": "function"
    },
    {
      "inputs": [],
      "name": "airnodeRrpAddress",
      "outputs": [
        {
          "internalType": "address",
          "name": "",
          "type": "address"
        }
      ],
      "stateMutability": "view",
      "type": "function"
    },
    {
      "inputs": [
        {
          "internalType": "uint256",
          "name": "_raffleId",
          "type": "uint256"
        }
      ],
      "name": "close",
      "outputs": [],
      "stateMutability": "payable",
      "type": "function"
    },
    {
      "inputs": [
        {
          "internalType": "uint256",
          "name": "_price",
          "type": "uint256"
        },
        {
          "internalType": "uint16",
          "name": "_winnerCount",
          "type": "uint16"
        },
        {
          "internalType": "string",
          "name": "_title",
          "type": "string"
        },
        {
          "internalType": "uint256",
          "name": "_startTime",
          "type": "uint256"
        },
        {
          "internalType": "uint256",
          "name": "_endTime",
          "type": "uint256"
        }
      ],
      "name": "create",
      "outputs": [],
      "stateMutability": "nonpayable",
      "type": "function"
    },
    {
      "inputs": [],
      "name": "endpointId",
      "outputs": [
        {
          "internalType": "bytes32",
          "name": "",
          "type": "bytes32"
        }
      ],
      "stateMutability": "view",
      "type": "function"
    },
    {
      "inputs": [
        {
          "internalType": "uint256",
          "name": "_raffleId",
          "type": "uint256"
        },
        {
          "internalType": "uint256",
          "name": "entryCount",
          "type": "uint256"
        }
      ],
      "name": "enter",
      "outputs": [],
      "stateMutability": "payable",
      "type": "function"
    },
    {
      "inputs": [
        {
          "internalType": "address",
          "name": "_account",
          "type": "address"
        }
      ],
      "name": "getAccountRaffles",
      "outputs": [
        {
          "components": [
            {
              "internalType": "uint256",
              "name": "raffleId",
              "type": "uint256"
            },
            {
              "internalType": "string",
              "name": "title",
              "type": "string"
            },
            {
              "internalType": "uint256",
              "name": "price",
              "type": "uint256"
            },
            {
              "internalType": "uint256",
              "name": "winnerCount",
              "type": "uint256"
            },
            {
              "internalType": "address[]",
              "name": "winners",
              "type": "address[]"
            },
            {
              "internalType": "address[]",
              "name": "entries",
              "type": "address[]"
            },
            {
              "internalType": "bool",
              "name": "open",
              "type": "bool"
            },
            {
              "internalType": "uint256",
              "name": "startTime",
              "type": "uint256"
            },
            {
              "internalType": "uint256",
              "name": "endTime",
              "type": "uint256"
            },
            {
              "internalType": "uint256",
              "name": "balance",
              "type": "uint256"
            },
            {
              "internalType": "address",
              "name": "owner",
              "type": "address"
            },
            {
              "internalType": "bool",
              "name": "airnodeSuccess",
              "type": "bool"
            }
          ],
          "internalType": "struct Raffler.Raffle[]",
          "name": "",
          "type": "tuple[]"
        }
      ],
      "stateMutability": "view",
      "type": "function"
    },
    {
      "inputs": [
        {
          "internalType": "address",
          "name": "_address",
          "type": "address"
        }
      ],
      "name": "getEnteredRaffles",
      "outputs": [
        {
          "internalType": "uint256[]",
          "name": "",
          "type": "uint256[]"
        }
      ],
      "stateMutability": "view",
      "type": "function"
    },
    {
      "inputs": [
        {
          "internalType": "uint256",
          "name": "_raffleId",
          "type": "uint256"
        }
      ],
      "name": "getEntries",
      "outputs": [
        {
          "internalType": "address[]",
          "name": "",
          "type": "address[]"
        }
      ],
      "stateMutability": "view",
      "type": "function"
    },
    {
      "inputs": [
        {
          "internalType": "uint256",
          "name": "_raffleId",
          "type": "uint256"
        }
      ],
      "name": "getWinners",
      "outputs": [
        {
          "internalType": "address[]",
          "name": "",
          "type": "address[]"
        }
      ],
      "stateMutability": "view",
      "type": "function"
    },
    {
      "inputs": [
        {
          "internalType": "uint256",
          "name": "_raffleId",
          "type": "uint256"
        },
        {
          "internalType": "address",
          "name": "_address",
          "type": "address"
        }
      ],
      "name": "isWinner",
      "outputs": [
        {
          "internalType": "bool",
          "name": "",
          "type": "bool"
        }
      ],
      "stateMutability": "view",
      "type": "function"
    },
    {
      "inputs": [
        {
          "internalType": "bytes32",
          "name": "",
          "type": "bytes32"
        }
      ],
      "name": "pendingRequestIds",
      "outputs": [
        {
          "internalType": "bool",
          "name": "",
          "type": "bool"
        }
      ],
      "stateMutability": "view",
      "type": "function"
    },
    {
      "inputs": [
        {
          "internalType": "bytes32",
          "name": "requestId",
          "type": "bytes32"
        },
        {
          "internalType": "bytes",
          "name": "data",
          "type": "bytes"
        }
      ],
      "name": "pickWinners",
      "outputs": [],
      "stateMutability": "nonpayable",
      "type": "function"
    },
    {
      "inputs": [
        {
          "internalType": "uint256",
          "name": "",
          "type": "uint256"
        }
      ],
      "name": "raffles",
      "outputs": [
        {
          "internalType": "uint256",
          "name": "raffleId",
          "type": "uint256"
        },
        {
          "internalType": "string",
          "name": "title",
          "type": "string"
        },
        {
          "internalType": "uint256",
          "name": "price",
          "type": "uint256"
        },
        {
          "internalType": "uint256",
          "name": "winnerCount",
          "type": "uint256"
        },
        {
          "internalType": "bool",
          "name": "open",
          "type": "bool"
        },
        {
          "internalType": "uint256",
          "name": "startTime",
          "type": "uint256"
        },
        {
          "internalType": "uint256",
          "name": "endTime",
          "type": "uint256"
        },
        {
          "internalType": "uint256",
          "name": "balance",
          "type": "uint256"
        },
        {
          "internalType": "address",
          "name": "owner",
          "type": "address"
        },
        {
          "internalType": "bool",
          "name": "airnodeSuccess",
          "type": "bool"
        }
      ],
      "stateMutability": "view",
      "type": "function"
    },
    {
      "inputs": [],
      "name": "sponsor",
      "outputs": [
        {
          "internalType": "address",
          "name": "",
          "type": "address"
        }
      ],
      "stateMutability": "view",
      "type": "function"
    },
    {
      "inputs": [],
      "name": "sponsorWallet",
      "outputs": [
        {
          "internalType": "address",
          "name": "",
          "type": "address"
        }
      ],
      "stateMutability": "view",
      "type": "function"
    }
  ],
  "bytecode": "0x60a0604052739d3c147ca16db954873a498e0af5852ab39139f2600960006101000a81548173ffffffffffffffffffffffffffffffffffffffff021916908373ffffffffffffffffffffffffffffffffffffffff1602179055507f27cc2713e7f968e4e86ed274a051a5c8aaee9cca66946f23af6f29ecea9704c360001b600a553480156200008d57600080fd5b5060405162003680380380620036808339818101604052810190620000b3919062000240565b818073ffffffffffffffffffffffffffffffffffffffff1660808173ffffffffffffffffffffffffffffffffffffffff1660601b815250508073ffffffffffffffffffffffffffffffffffffffff1663addf027c3060016040518363ffffffff1660e01b815260040162000129929190620002a3565b600060405180830381600087803b1580156200014457600080fd5b505af115801562000159573d6000803e3d6000fd5b505050505081600660006101000a81548173ffffffffffffffffffffffffffffffffffffffff021916908373ffffffffffffffffffffffffffffffffffffffff16021790555080600860006101000a81548173ffffffffffffffffffffffffffffffffffffffff021916908373ffffffffffffffffffffffffffffffffffffffff16021790555033600760006101000a81548173ffffffffffffffffffffffffffffffffffffffff021916908373ffffffffffffffffffffffffffffffffffffffff16021790555050506200032a565b6000815190506200023a8162000310565b92915050565b600080604083850312156200025457600080fd5b6000620002648582860162000229565b9250506020620002778582860162000229565b9150509250929050565b6200028c81620002d0565b82525050565b6200029d81620002e4565b82525050565b6000604082019050620002ba600083018562000281565b620002c9602083018462000292565b9392505050565b6000620002dd82620002f0565b9050919050565b60008115159050919050565b600073ffffffffffffffffffffffffffffffffffffffff82169050919050565b6200031b81620002d0565b81146200032757600080fd5b50565b60805160601c61332962000357600039600081816106c101528181610be1015261116f01526133296000f3fe6080604052600436106101145760003560e01c806371bab666116100a0578063bdd415af11610064578063bdd415af146103da578063bf90fb4e14610417578063c07724ec14610442578063d3549ebd1461046b578063e8ac2101146104a857610114565b806371bab666146102f157806377c936621461031c57806377e20df814610347578063960972c714610372578063ab98dcdd146103af57610114565b80633ddc5a69116100e75780633ddc5a69146101cb5780633f532acd146102085780635d4bc0ce146102315780636040a966146102775780636b1426a4146102b457610114565b8063011f2602146101195780630aebeb4e1461015657806323972aef146101725780632d02cafc1461018e575b600080fd5b34801561012557600080fd5b50610140600480360381019061013b91906120cd565b6104d3565b60405161014d9190612b15565b60405180910390f35b610170600480360381019061016b91906121f4565b610504565b005b61018c600480360381019061018791906122e8565b6108b5565b005b34801561019a57600080fd5b506101b560048036038101906101b091906120cd565b610b17565b6040516101c29190612b15565b60405180910390f35b3480156101d757600080fd5b506101f260048036038101906101ed91906120a4565b610b48565b6040516101ff919061294b565b60405180910390f35b34801561021457600080fd5b5061022f600480360381019061022a919061219c565b610bdf565b005b34801561023d57600080fd5b50610258600480360381019061025391906121f4565b610f93565b60405161026e9a99989796959493929190612b30565b60405180910390f35b34801561028357600080fd5b5061029e6004803603810190610299919061214a565b6110a9565b6040516102ab919061296d565b60405180910390f35b3480156102c057600080fd5b506102db60048036038101906102d691906121f4565b6110c9565b6040516102e89190612907565b60405180910390f35b3480156102fd57600080fd5b5061030661116d565b60405161031391906129da565b60405180910390f35b34801561032857600080fd5b50610331611191565b60405161033e9190612876565b60405180910390f35b34801561035357600080fd5b5061035c6111b7565b6040516103699190612988565b60405180910390f35b34801561037e57600080fd5b50610399600480360381019061039491906120a4565b6111bd565b6040516103a69190612929565b60405180910390f35b3480156103bb57600080fd5b506103c4611613565b6040516103d19190612876565b60405180910390f35b3480156103e657600080fd5b5061040160048036038101906103fc919061221d565b611639565b60405161040e919061296d565b60405180910390f35b34801561042357600080fd5b5061042c611737565b6040516104399190612876565b60405180910390f35b34801561044e57600080fd5b5061046960048036038101906104649190612259565b61175d565b005b34801561047757600080fd5b50610492600480360381019061048d91906121f4565b611ae8565b60405161049f9190612907565b60405180910390f35b3480156104b457600080fd5b506104bd611b8c565b6040516104ca9190612876565b60405180910390f35b600360205281600052604060002081815481106104ef57600080fd5b90600052602060002001600091509150505481565b60006001600083815260200190815260200160002090508060060160009054906101000a900460ff1661056c576040517f08c379a000000000000000000000000000000000000000000000000000000000815260040161056390612ab5565b60405180910390fd5b6000816005018054905014156105bc5760008160060160006101000a81548160ff021916908315150217905550600181600a0160146101000a81548160ff021916908315150217905550506108b2565b80600301548160050180549050101561060a576040517f08c379a000000000000000000000000000000000000000000000000000000000815260040161060190612a55565b60405180910390fd5b66038d7ea4c68000341015610654576040517f08c379a000000000000000000000000000000000000000000000000000000000815260040161064b90612a95565b60405180910390fd5b600860009054906101000a900473ffffffffffffffffffffffffffffffffffffffff1673ffffffffffffffffffffffffffffffffffffffff166108fc349081150290604051600060405180830381858888f193505050501580156106bc573d6000803e3d6000fd5b5060007f000000000000000000000000000000000000000000000000000000000000000073ffffffffffffffffffffffffffffffffffffffff16636e6be03f600960009054906101000a900473ffffffffffffffffffffffffffffffffffffffff16600a54600760009054906101000a900473ffffffffffffffffffffffffffffffffffffffff16600860009054906101000a900473ffffffffffffffffffffffffffffffffffffffff1630633f532acd60e01b7f31750000000000000000000000000000000000000000000000000000000000007f73697a65000000000000000000000000000000000000000000000000000000008b600301546040516020016107c9939291906129a3565b6040516020818303038152906040526040518863ffffffff1660e01b81526004016107fa9796959493929190612891565b602060405180830381600087803b15801561081457600080fd5b505af1158015610828573d6000803e3d6000fd5b505050506040513d601f19601f8201168201806040525081019061084c9190612173565b905060016004600083815260200190815260200160002060006101000a81548160ff02191690831515021790555082600560008381526020019081526020016000208190555060008260060160006101000a81548160ff02191690831515021790555050505b50565b60006001600084815260200190815260200160002090508060060160009054906101000a900460ff1661091d576040517f08c379a000000000000000000000000000000000000000000000000000000000815260040161091490612ab5565b60405180910390fd5b6001821015610961576040517f08c379a000000000000000000000000000000000000000000000000000000000815260040161095890612a35565b60405180910390fd5b80600701544210158015610979575080600801544211155b6109b8576040517f08c379a00000000000000000000000000000000000000000000000000000000081526004016109af90612ab5565b60405180910390fd5b8181600201546109c89190612db0565b3414610a09576040517f08c379a0000000000000000000000000000000000000000000000000000000008152600401610a0090612af5565b60405180910390fd5b34816009016000828254610a1d9190612d5a565b9250508190555060005b82811015610aa75781600501339080600181540180825580915050600190039060005260206000200160009091909190916101000a81548173ffffffffffffffffffffffffffffffffffffffff021916908373ffffffffffffffffffffffffffffffffffffffff1602179055508080610a9f90612f93565b915050610a27565b50600360003373ffffffffffffffffffffffffffffffffffffffff1673ffffffffffffffffffffffffffffffffffffffff16815260200190815260200160002081600001549080600181540180825580915050600190039060005260206000200160009091909190915055505050565b60026020528160005260406000208181548110610b3357600080fd5b90600052602060002001600091509150505481565b6060600360008373ffffffffffffffffffffffffffffffffffffffff1673ffffffffffffffffffffffffffffffffffffffff168152602001908152602001600020805480602002602001604051908101604052809291908181526020018280548015610bd357602002820191906000526020600020905b815481526020019060010190808311610bbf575b50505050509050919050565b7f000000000000000000000000000000000000000000000000000000000000000073ffffffffffffffffffffffffffffffffffffffff163373ffffffffffffffffffffffffffffffffffffffff1614610c6d576040517f08c379a0000000000000000000000000000000000000000000000000000000008152600401610c64906129f5565b60405180910390fd5b6004600084815260200190815260200160002060009054906101000a900460ff16610ccd576040517f08c379a0000000000000000000000000000000000000000000000000000000008152600401610cc490612a75565b60405180910390fd5b6004600084815260200190815260200160002060006101000a81549060ff021916905560006001600060056000878152602001908152602001600020548152602001908152602001600020905080600a0160149054906101000a900460ff1615610d6c576040517f08c379a0000000000000000000000000000000000000000000000000000000008152600401610d6390612a15565b60405180910390fd5b60008383810190610d7d9190612109565b905060005b8151811015610ece5760008360050180549050838381518110610dce577f4e487b7100000000000000000000000000000000000000000000000000000000600052603260045260246000fd5b6020026020010151610de09190612fdc565b905083600401846005018281548110610e22577f4e487b7100000000000000000000000000000000000000000000000000000000600052603260045260246000fd5b9060005260206000200160009054906101000a900473ffffffffffffffffffffffffffffffffffffffff169080600181540180825580915050600190039060005260206000200160009091909190916101000a81548173ffffffffffffffffffffffffffffffffffffffff021916908373ffffffffffffffffffffffffffffffffffffffff160217905550610eba8185600501611bb2565b508080610ec690612f93565b915050610d82565b50600182600a0160146101000a81548160ff02191690831515021790555081600001547fda541f4e032481ebcbe0e277c90af3e48bbec6dcf71ee22596090af8b6cfbf2660405160405180910390a281600a0160009054906101000a900473ffffffffffffffffffffffffffffffffffffffff1673ffffffffffffffffffffffffffffffffffffffff166108fc83600901549081150290604051600060405180830381858888f19350505050158015610f8b573d6000803e3d6000fd5b505050505050565b6001602052806000526040600020600091509050806000015490806001018054610fbc90612f30565b80601f0160208091040260200160405190810160405280929190818152602001828054610fe890612f30565b80156110355780601f1061100a57610100808354040283529160200191611035565b820191906000526020600020905b81548152906001019060200180831161101857829003601f168201915b5050505050908060020154908060030154908060060160009054906101000a900460ff169080600701549080600801549080600901549080600a0160009054906101000a900473ffffffffffffffffffffffffffffffffffffffff169080600a0160149054906101000a900460ff1690508a565b60046020528060005260406000206000915054906101000a900460ff1681565b60606001600083815260200190815260200160002060040180548060200260200160405190810160405280929190818152602001828054801561116157602002820191906000526020600020905b8160009054906101000a900473ffffffffffffffffffffffffffffffffffffffff1673ffffffffffffffffffffffffffffffffffffffff1681526020019060010190808311611117575b50505050509050919050565b7f000000000000000000000000000000000000000000000000000000000000000081565b600760009054906101000a900473ffffffffffffffffffffffffffffffffffffffff1681565b600a5481565b60606000600260008473ffffffffffffffffffffffffffffffffffffffff1673ffffffffffffffffffffffffffffffffffffffff16815260200190815260200160002080548060200260200160405190810160405280929190818152602001828054801561124a57602002820191906000526020600020905b815481526020019060010190808311611236575b505050505090506000815167ffffffffffffffff811115611294577f4e487b7100000000000000000000000000000000000000000000000000000000600052604160045260246000fd5b6040519080825280602002602001820160405280156112cd57816020015b6112ba611d4b565b8152602001906001900390816112b25790505b50905060005b82518110156116085760016000848381518110611319577f4e487b7100000000000000000000000000000000000000000000000000000000600052603260045260246000fd5b60200260200101518152602001908152602001600020604051806101800160405290816000820154815260200160018201805461135590612f30565b80601f016020809104026020016040519081016040528092919081815260200182805461138190612f30565b80156113ce5780601f106113a3576101008083540402835291602001916113ce565b820191906000526020600020905b8154815290600101906020018083116113b157829003601f168201915b5050505050815260200160028201548152602001600382015481526020016004820180548060200260200160405190810160405280929190818152602001828054801561147057602002820191906000526020600020905b8160009054906101000a900473ffffffffffffffffffffffffffffffffffffffff1673ffffffffffffffffffffffffffffffffffffffff1681526020019060010190808311611426575b50505050508152602001600582018054806020026020016040519081016040528092919081815260200182805480156114fe57602002820191906000526020600020905b8160009054906101000a900473ffffffffffffffffffffffffffffffffffffffff1673ffffffffffffffffffffffffffffffffffffffff16815260200190600101908083116114b4575b505050505081526020016006820160009054906101000a900460ff16151515158152602001600782015481526020016008820154815260200160098201548152602001600a820160009054906101000a900473ffffffffffffffffffffffffffffffffffffffff1673ffffffffffffffffffffffffffffffffffffffff1673ffffffffffffffffffffffffffffffffffffffff168152602001600a820160149054906101000a900460ff1615151515815250508282815181106115ea577f4e487b7100000000000000000000000000000000000000000000000000000000600052603260045260246000fd5b6020026020010181905250808061160090612f93565b9150506112d3565b508092505050919050565b600960009054906101000a900473ffffffffffffffffffffffffffffffffffffffff1681565b600080600090505b600160008581526020019081526020016000206004018054905081101561172b578273ffffffffffffffffffffffffffffffffffffffff166001600086815260200190815260200160002060040182815481106116c7577f4e487b7100000000000000000000000000000000000000000000000000000000600052603260045260246000fd5b9060005260206000200160009054906101000a900473ffffffffffffffffffffffffffffffffffffffff1673ffffffffffffffffffffffffffffffffffffffff161415611718576001915050611731565b808061172390612f93565b915050611641565b50600090505b92915050565b600860009054906101000a900473ffffffffffffffffffffffffffffffffffffffff1681565b60008461ffff16116117a4576040517f08c379a000000000000000000000000000000000000000000000000000000000815260040161179b90612ad5565b60405180910390fd5b6117ae6000611d27565b60006040518061018001604052806117c66000611d3d565b81526020018581526020018781526020018661ffff168152602001600067ffffffffffffffff811115611822577f4e487b7100000000000000000000000000000000000000000000000000000000600052604160045260246000fd5b6040519080825280602002602001820160405280156118505781602001602082028036833780820191505090505b508152602001600067ffffffffffffffff811115611897577f4e487b7100000000000000000000000000000000000000000000000000000000600052604160045260246000fd5b6040519080825280602002602001820160405280156118c55781602001602082028036833780820191505090505b508152602001600115158152602001848152602001838152602001600081526020013373ffffffffffffffffffffffffffffffffffffffff16815260200160001515815250905080600160008360000151815260200190815260200160002060008201518160000155602082015181600101908051906020019061194a929190611dc6565b506040820151816002015560608201518160030155608082015181600401908051906020019061197b929190611e4c565b5060a0820151816005019080519060200190611998929190611e4c565b5060c08201518160060160006101000a81548160ff02191690831515021790555060e082015181600701556101008201518160080155610120820151816009015561014082015181600a0160006101000a81548173ffffffffffffffffffffffffffffffffffffffff021916908373ffffffffffffffffffffffffffffffffffffffff16021790555061016082015181600a0160146101000a81548160ff021916908315150217905550905050600260003373ffffffffffffffffffffffffffffffffffffffff1673ffffffffffffffffffffffffffffffffffffffff1681526020019081526020016000208160000151908060018154018082558091505060019003906000526020600020016000909190919091505580600001517f0b5745354685a046e72f24602bcf00fa0ee07f0bf511afb5f2d3ab636241e41b60405160405180910390a2505050505050565b606060016000838152602001908152602001600020600501805480602002602001604051908101604052809291908181526020018280548015611b8057602002820191906000526020600020905b8160009054906101000a900473ffffffffffffffffffffffffffffffffffffffff1673ffffffffffffffffffffffffffffffffffffffff1681526020019060010190808311611b36575b50505050509050919050565b600660009054906101000a900473ffffffffffffffffffffffffffffffffffffffff1681565b80805490508210611bc257600080fd5b8060018280549050611bd49190612e0a565b81548110611c0b577f4e487b7100000000000000000000000000000000000000000000000000000000600052603260045260246000fd5b9060005260206000200160009054906101000a900473ffffffffffffffffffffffffffffffffffffffff16818381548110611c6f577f4e487b7100000000000000000000000000000000000000000000000000000000600052603260045260246000fd5b9060005260206000200160006101000a81548173ffffffffffffffffffffffffffffffffffffffff021916908373ffffffffffffffffffffffffffffffffffffffff16021790555080805480611cee577f4e487b7100000000000000000000000000000000000000000000000000000000600052603160045260246000fd5b6001900381819060005260206000200160006101000a81549073ffffffffffffffffffffffffffffffffffffffff021916905590555050565b6001816000016000828254019250508190555050565b600081600001549050919050565b604051806101800160405280600081526020016060815260200160008152602001600081526020016060815260200160608152602001600015158152602001600081526020016000815260200160008152602001600073ffffffffffffffffffffffffffffffffffffffff1681526020016000151581525090565b828054611dd290612f30565b90600052602060002090601f016020900481019282611df45760008555611e3b565b82601f10611e0d57805160ff1916838001178555611e3b565b82800160010185558215611e3b579182015b82811115611e3a578251825591602001919060010190611e1f565b5b509050611e489190611ed6565b5090565b828054828255906000526020600020908101928215611ec5579160200282015b82811115611ec45782518260006101000a81548173ffffffffffffffffffffffffffffffffffffffff021916908373ffffffffffffffffffffffffffffffffffffffff16021790555091602001919060010190611e6c565b5b509050611ed29190611ed6565b5090565b5b80821115611eef576000816000905550600101611ed7565b5090565b6000611f06611f0184612bf8565b612bd3565b90508083825260208201905082856020860282011115611f2557600080fd5b60005b85811015611f555781611f3b888261208f565b845260208401935060208301925050600181019050611f28565b5050509392505050565b6000611f72611f6d84612c24565b612bd3565b905082815260208101848484011115611f8a57600080fd5b611f95848285612eee565b509392505050565b600081359050611fac81613297565b92915050565b600082601f830112611fc357600080fd5b8135611fd3848260208601611ef3565b91505092915050565b600081359050611feb816132ae565b92915050565b600081519050612000816132ae565b92915050565b60008083601f84011261201857600080fd5b8235905067ffffffffffffffff81111561203157600080fd5b60208301915083600182028301111561204957600080fd5b9250929050565b600082601f83011261206157600080fd5b8135612071848260208601611f5f565b91505092915050565b600081359050612089816132c5565b92915050565b60008135905061209e816132dc565b92915050565b6000602082840312156120b657600080fd5b60006120c484828501611f9d565b91505092915050565b600080604083850312156120e057600080fd5b60006120ee85828601611f9d565b92505060206120ff8582860161208f565b9150509250929050565b60006020828403121561211b57600080fd5b600082013567ffffffffffffffff81111561213557600080fd5b61214184828501611fb2565b91505092915050565b60006020828403121561215c57600080fd5b600061216a84828501611fdc565b91505092915050565b60006020828403121561218557600080fd5b600061219384828501611ff1565b91505092915050565b6000806000604084860312156121b157600080fd5b60006121bf86828701611fdc565b935050602084013567ffffffffffffffff8111156121dc57600080fd5b6121e886828701612006565b92509250509250925092565b60006020828403121561220657600080fd5b60006122148482850161208f565b91505092915050565b6000806040838503121561223057600080fd5b600061223e8582860161208f565b925050602061224f85828601611f9d565b9150509250929050565b600080600080600060a0868803121561227157600080fd5b600061227f8882890161208f565b95505060206122908882890161207a565b945050604086013567ffffffffffffffff8111156122ad57600080fd5b6122b988828901612050565b93505060606122ca8882890161208f565b92505060806122db8882890161208f565b9150509295509295909350565b600080604083850312156122fb57600080fd5b60006123098582860161208f565b925050602061231a8582860161208f565b9150509250929050565b60006123308383612368565b60208301905092915050565b60006123488383612746565b905092915050565b600061235c8383612858565b60208301905092915050565b61237181612e3e565b82525050565b61238081612e3e565b82525050565b600061239182612c85565b61239b8185612ce3565b93506123a683612c55565b8060005b838110156123d75781516123be8882612324565b97506123c983612cbc565b9250506001810190506123aa565b5085935050505092915050565b60006123ef82612c85565b6123f98185612cf4565b935061240483612c55565b8060005b8381101561243557815161241c8882612324565b975061242783612cbc565b925050600181019050612408565b5085935050505092915050565b600061244d82612c90565b6124578185612d05565b93508360208202850161246985612c65565b8060005b858110156124a55784840389528151612486858261233c565b945061249183612cc9565b925060208a0199505060018101905061246d565b50829750879550505050505092915050565b60006124c282612c9b565b6124cc8185612d16565b93506124d783612c75565b8060005b838110156125085781516124ef8882612350565b97506124fa83612cd6565b9250506001810190506124db565b5085935050505092915050565b61251e81612e50565b82525050565b61252d81612e50565b82525050565b61253c81612e5c565b82525050565b61254b81612e66565b82525050565b600061255c82612ca6565b6125668185612d27565b9350612576818560208601612efd565b61257f816130c9565b840191505092915050565b61259381612eca565b82525050565b60006125a482612cb1565b6125ae8185612d38565b93506125be818560208601612efd565b6125c7816130c9565b840191505092915050565b60006125dd82612cb1565b6125e78185612d49565b93506125f7818560208601612efd565b612600816130c9565b840191505092915050565b6000612618601683612d49565b9150612623826130da565b602082019050919050565b600061263b601683612d49565b915061264682613103565b602082019050919050565b600061265e601e83612d49565b91506126698261312c565b602082019050919050565b6000612681601283612d49565b915061268c82613155565b602082019050919050565b60006126a4601483612d49565b91506126af8261317e565b602082019050919050565b60006126c7602c83612d49565b91506126d2826131a7565b604082019050919050565b60006126ea601083612d49565b91506126f5826131f6565b602082019050919050565b600061270d602383612d49565b91506127188261321f565b604082019050919050565b6000612730601a83612d49565b915061273b8261326e565b602082019050919050565b60006101808301600083015161275f6000860182612858565b50602083015184820360208601526127778282612599565b915050604083015161278c6040860182612858565b50606083015161279f6060860182612858565b50608083015184820360808601526127b78282612386565b91505060a083015184820360a08601526127d18282612386565b91505060c08301516127e660c0860182612515565b5060e08301516127f960e0860182612858565b5061010083015161280e610100860182612858565b50610120830151612823610120860182612858565b50610140830151612838610140860182612368565b5061016083015161284d610160860182612515565b508091505092915050565b61286181612ec0565b82525050565b61287081612ec0565b82525050565b600060208201905061288b6000830184612377565b92915050565b600060e0820190506128a6600083018a612377565b6128b36020830189612533565b6128c06040830188612377565b6128cd6060830187612377565b6128da6080830186612377565b6128e760a0830185612542565b81810360c08301526128f98184612551565b905098975050505050505050565b6000602082019050818103600083015261292181846123e4565b905092915050565b600060208201905081810360008301526129438184612442565b905092915050565b6000602082019050818103600083015261296581846124b7565b905092915050565b60006020820190506129826000830184612524565b92915050565b600060208201905061299d6000830184612533565b92915050565b60006060820190506129b86000830186612533565b6129c56020830185612533565b6129d26040830184612867565b949350505050565b60006020820190506129ef600083018461258a565b92915050565b60006020820190508181036000830152612a0e8161260b565b9050919050565b60006020820190508181036000830152612a2e8161262e565b9050919050565b60006020820190508181036000830152612a4e81612651565b9050919050565b60006020820190508181036000830152612a6e81612674565b9050919050565b60006020820190508181036000830152612a8e81612697565b9050919050565b60006020820190508181036000830152612aae816126ba565b9050919050565b60006020820190508181036000830152612ace816126dd565b9050919050565b60006020820190508181036000830152612aee81612700565b9050919050565b60006020820190508181036000830152612b0e81612723565b9050919050565b6000602082019050612b2a6000830184612867565b92915050565b600061014082019050612b46600083018d612867565b8181036020830152612b58818c6125d2565b9050612b67604083018b612867565b612b74606083018a612867565b612b816080830189612524565b612b8e60a0830188612867565b612b9b60c0830187612867565b612ba860e0830186612867565b612bb6610100830185612377565b612bc4610120830184612524565b9b9a5050505050505050505050565b6000612bdd612bee565b9050612be98282612f62565b919050565b6000604051905090565b600067ffffffffffffffff821115612c1357612c1261309a565b5b602082029050602081019050919050565b600067ffffffffffffffff821115612c3f57612c3e61309a565b5b612c48826130c9565b9050602081019050919050565b6000819050602082019050919050565b6000819050602082019050919050565b6000819050602082019050919050565b600081519050919050565b600081519050919050565b600081519050919050565b600081519050919050565b600081519050919050565b6000602082019050919050565b6000602082019050919050565b6000602082019050919050565b600082825260208201905092915050565b600082825260208201905092915050565b600082825260208201905092915050565b600082825260208201905092915050565b600082825260208201905092915050565b600082825260208201905092915050565b600082825260208201905092915050565b6000612d6582612ec0565b9150612d7083612ec0565b9250827fffffffffffffffffffffffffffffffffffffffffffffffffffffffffffffffff03821115612da557612da461300d565b5b828201905092915050565b6000612dbb82612ec0565b9150612dc683612ec0565b9250817fffffffffffffffffffffffffffffffffffffffffffffffffffffffffffffffff0483118215151615612dff57612dfe61300d565b5b828202905092915050565b6000612e1582612ec0565b9150612e2083612ec0565b925082821015612e3357612e3261300d565b5b828203905092915050565b6000612e4982612ea0565b9050919050565b60008115159050919050565b6000819050919050565b60007fffffffff0000000000000000000000000000000000000000000000000000000082169050919050565b600061ffff82169050919050565b600073ffffffffffffffffffffffffffffffffffffffff82169050919050565b6000819050919050565b6000612ed582612edc565b9050919050565b6000612ee782612ea0565b9050919050565b82818337600083830152505050565b60005b83811015612f1b578082015181840152602081019050612f00565b83811115612f2a576000848401525b50505050565b60006002820490506001821680612f4857607f821691505b60208210811415612f5c57612f5b61306b565b5b50919050565b612f6b826130c9565b810181811067ffffffffffffffff82111715612f8a57612f8961309a565b5b80604052505050565b6000612f9e82612ec0565b91507fffffffffffffffffffffffffffffffffffffffffffffffffffffffffffffffff821415612fd157612fd061300d565b5b600182019050919050565b6000612fe782612ec0565b9150612ff283612ec0565b9250826130025761300161303c565b5b828206905092915050565b7f4e487b7100000000000000000000000000000000000000000000000000000000600052601160045260246000fd5b7f4e487b7100000000000000000000000000000000000000000000000000000000600052601260045260246000fd5b7f4e487b7100000000000000000000000000000000000000000000000000000000600052602260045260246000fd5b7f4e487b7100000000000000000000000000000000000000000000000000000000600052604160045260246000fd5b6000601f19601f8301169050919050565b7f43616c6c6572206e6f74204169726e6f64652052525000000000000000000000600082015250565b7f57696e6e65727320616c7265616479207069636b656400000000000000000000600082015250565b7f456e74727920636f756e74206d757374206265206174206c6561737420310000600082015250565b7f4e6f7420656e6f75676820656e74726965730000000000000000000000000000600082015250565b7f4e6f20737563682072657175657374206d616465000000000000000000000000600082015250565b7f506c656173652073656e6420736f6d652066756e647320746f2074686520737060008201527f6f6e736f722077616c6c65740000000000000000000000000000000000000000602082015250565b7f526166666c6520697320636c6f73656400000000000000000000000000000000600082015250565b7f57696e6e657220636f756e74206d75737420626520677265617465722074686160008201527f6e20300000000000000000000000000000000000000000000000000000000000602082015250565b7f456e74727920707269636520646f6573206e6f74206d61746368000000000000600082015250565b6132a081612e3e565b81146132ab57600080fd5b50565b6132b781612e5c565b81146132c257600080fd5b50565b6132ce81612e92565b81146132d957600080fd5b50565b6132e581612ec0565b81146132f057600080fd5b5056fea2646970667358221220668c771015123841ecf056bcfb20f15ade482cbceeabb895e7dc6bc51aac73e264736f6c63430008040033",
  "linkReferences": {},
  "deployedLinkReferences": {}
}