{
  "_format": "hh-sol-artifact-1",
  "contractName": "Raffler",
  "sourceName": "contracts/Raffle.sol",
  "abi": [
    {
      "inputs": [
        {
          "internalType": "address",
          "name": "_airnodeRrpAddress",
          "type": "address"
        },
        {
          "internalType": "address",
          "name": "_sponsorWallet",
          "type": "address"
        }
      ],
      "stateMutability": "nonpayable",
      "type": "constructor"
    },
    {
      "anonymous": false,
      "inputs": [
        {
          "indexed": false,
          "internalType": "uint256",
          "name": "_raffleId",
          "type": "uint256"
        }
      ],
      "name": "RaffleCreated",
      "type": "event"
    },
    {
      "inputs": [],
      "name": "ANUairnodeAddress",
      "outputs": [
        {
          "internalType": "address",
          "name": "",
          "type": "address"
        }
      ],
      "stateMutability": "view",
      "type": "function"
    },
    {
      "inputs": [
        {
          "internalType": "address",
          "name": "",
          "type": "address"
        },
        {
          "internalType": "uint256",
          "name": "",
          "type": "uint256"
        }
      ],
      "name": "accountEntries",
      "outputs": [
        {
          "internalType": "uint256",
          "name": "",
          "type": "uint256"
        }
      ],
      "stateMutability": "view",
      "type": "function"
    },
    {
      "inputs": [
        {
          "internalType": "address",
          "name": "",
          "type": "address"
        },
        {
          "internalType": "uint256",
          "name": "",
          "type": "uint256"
        }
      ],
      "name": "accountRaffles",
      "outputs": [
        {
          "internalType": "uint256",
          "name": "",
          "type": "uint256"
        }
      ],
      "stateMutability": "view",
      "type": "function"
    },
    {
      "inputs": [],
      "name": "airnodeRrp",
      "outputs": [
        {
          "internalType": "contract IAirnodeRrpV0",
          "name": "",
          "type": "address"
        }
      ],
      "stateMutability": "view",
      "type": "function"
    },
    {
      "inputs": [],
      "name": "airnodeRrpAddress",
      "outputs": [
        {
          "internalType": "address",
          "name": "",
          "type": "address"
        }
      ],
      "stateMutability": "view",
      "type": "function"
    },
    {
      "inputs": [
        {
          "internalType": "uint256",
          "name": "_raffleId",
          "type": "uint256"
        }
      ],
      "name": "close",
      "outputs": [],
      "stateMutability": "payable",
      "type": "function"
    },
    {
      "inputs": [
        {
          "internalType": "uint256",
          "name": "_price",
          "type": "uint256"
        },
        {
          "internalType": "uint16",
          "name": "_winnerCount",
          "type": "uint16"
        },
        {
          "internalType": "string",
          "name": "_title",
          "type": "string"
        },
        {
          "internalType": "uint256",
          "name": "_startTime",
          "type": "uint256"
        },
        {
          "internalType": "uint256",
          "name": "_endTime",
          "type": "uint256"
        }
      ],
      "name": "create",
      "outputs": [],
      "stateMutability": "nonpayable",
      "type": "function"
    },
    {
      "inputs": [],
      "name": "endpointId",
      "outputs": [
        {
          "internalType": "bytes32",
          "name": "",
          "type": "bytes32"
        }
      ],
      "stateMutability": "view",
      "type": "function"
    },
    {
      "inputs": [
        {
          "internalType": "uint256",
          "name": "_raffleId",
          "type": "uint256"
        },
        {
          "internalType": "uint256",
          "name": "entryCount",
          "type": "uint256"
        }
      ],
      "name": "enter",
      "outputs": [],
      "stateMutability": "payable",
      "type": "function"
    },
    {
      "inputs": [
        {
          "internalType": "address",
          "name": "_account",
          "type": "address"
        }
      ],
      "name": "getAccountRaffles",
      "outputs": [
        {
          "components": [
            {
              "internalType": "uint256",
              "name": "id",
              "type": "uint256"
            },
            {
              "internalType": "string",
              "name": "title",
              "type": "string"
            },
            {
              "internalType": "uint256",
              "name": "price",
              "type": "uint256"
            },
            {
              "internalType": "uint256",
              "name": "winnerCount",
              "type": "uint256"
            },
            {
              "internalType": "address[]",
              "name": "winners",
              "type": "address[]"
            },
            {
              "internalType": "address[]",
              "name": "entries",
              "type": "address[]"
            },
            {
              "internalType": "bool",
              "name": "open",
              "type": "bool"
            },
            {
              "internalType": "uint256",
              "name": "startTime",
              "type": "uint256"
            },
            {
              "internalType": "uint256",
              "name": "endTime",
              "type": "uint256"
            },
            {
              "internalType": "uint256",
              "name": "balance",
              "type": "uint256"
            },
            {
              "internalType": "address",
              "name": "owner",
              "type": "address"
            },
            {
              "internalType": "bool",
              "name": "airnodeSuccess",
              "type": "bool"
            }
          ],
          "internalType": "struct Raffler.Raffle[]",
          "name": "",
          "type": "tuple[]"
        }
      ],
      "stateMutability": "view",
      "type": "function"
    },
    {
      "inputs": [
        {
          "internalType": "uint256",
          "name": "_raffleId",
          "type": "uint256"
        }
      ],
      "name": "getEntries",
      "outputs": [
        {
          "internalType": "address[]",
          "name": "",
          "type": "address[]"
        }
      ],
      "stateMutability": "view",
      "type": "function"
    },
    {
      "inputs": [
        {
          "internalType": "uint256",
          "name": "_raffleId",
          "type": "uint256"
        }
      ],
      "name": "getWinners",
      "outputs": [
        {
          "internalType": "address[]",
          "name": "",
          "type": "address[]"
        }
      ],
      "stateMutability": "view",
      "type": "function"
    },
    {
      "inputs": [
        {
          "internalType": "uint256",
          "name": "_raffleId",
          "type": "uint256"
        },
        {
          "internalType": "address",
          "name": "_address",
          "type": "address"
        }
      ],
      "name": "isWinner",
      "outputs": [
        {
          "internalType": "bool",
          "name": "",
          "type": "bool"
        }
      ],
      "stateMutability": "view",
      "type": "function"
    },
    {
      "inputs": [
        {
          "internalType": "bytes32",
          "name": "",
          "type": "bytes32"
        }
      ],
      "name": "pendingRequestIds",
      "outputs": [
        {
          "internalType": "bool",
          "name": "",
          "type": "bool"
        }
      ],
      "stateMutability": "view",
      "type": "function"
    },
    {
      "inputs": [
        {
          "internalType": "bytes32",
          "name": "requestId",
          "type": "bytes32"
        },
        {
          "internalType": "bytes",
          "name": "data",
          "type": "bytes"
        }
      ],
      "name": "pickWinners",
      "outputs": [],
      "stateMutability": "nonpayable",
      "type": "function"
    },
    {
      "inputs": [
        {
          "internalType": "uint256",
          "name": "",
          "type": "uint256"
        }
      ],
      "name": "raffles",
      "outputs": [
        {
          "internalType": "uint256",
          "name": "id",
          "type": "uint256"
        },
        {
          "internalType": "string",
          "name": "title",
          "type": "string"
        },
        {
          "internalType": "uint256",
          "name": "price",
          "type": "uint256"
        },
        {
          "internalType": "uint256",
          "name": "winnerCount",
          "type": "uint256"
        },
        {
          "internalType": "bool",
          "name": "open",
          "type": "bool"
        },
        {
          "internalType": "uint256",
          "name": "startTime",
          "type": "uint256"
        },
        {
          "internalType": "uint256",
          "name": "endTime",
          "type": "uint256"
        },
        {
          "internalType": "uint256",
          "name": "balance",
          "type": "uint256"
        },
        {
          "internalType": "address",
          "name": "owner",
          "type": "address"
        },
        {
          "internalType": "bool",
          "name": "airnodeSuccess",
          "type": "bool"
        }
      ],
      "stateMutability": "view",
      "type": "function"
    },
    {
      "inputs": [],
      "name": "sponsor",
      "outputs": [
        {
          "internalType": "address",
          "name": "",
          "type": "address"
        }
      ],
      "stateMutability": "view",
      "type": "function"
    },
    {
      "inputs": [],
      "name": "sponsorWallet",
      "outputs": [
        {
          "internalType": "address",
          "name": "",
          "type": "address"
        }
      ],
      "stateMutability": "view",
      "type": "function"
    }
  ],
  "bytecode": "0x60a0604052739d3c147ca16db954873a498e0af5852ab39139f2600960006101000a81548173ffffffffffffffffffffffffffffffffffffffff021916908373ffffffffffffffffffffffffffffffffffffffff1602179055507f27cc2713e7f968e4e86ed274a051a5c8aaee9cca66946f23af6f29ecea9704c360001b600a553480156200008d57600080fd5b50604051620035a0380380620035a08339818101604052810190620000b3919062000240565b818073ffffffffffffffffffffffffffffffffffffffff1660808173ffffffffffffffffffffffffffffffffffffffff1660601b815250508073ffffffffffffffffffffffffffffffffffffffff1663addf027c3060016040518363ffffffff1660e01b815260040162000129929190620002a3565b600060405180830381600087803b1580156200014457600080fd5b505af115801562000159573d6000803e3d6000fd5b505050505081600660006101000a81548173ffffffffffffffffffffffffffffffffffffffff021916908373ffffffffffffffffffffffffffffffffffffffff16021790555080600860006101000a81548173ffffffffffffffffffffffffffffffffffffffff021916908373ffffffffffffffffffffffffffffffffffffffff16021790555033600760006101000a81548173ffffffffffffffffffffffffffffffffffffffff021916908373ffffffffffffffffffffffffffffffffffffffff16021790555050506200032a565b6000815190506200023a8162000310565b92915050565b600080604083850312156200025457600080fd5b6000620002648582860162000229565b9250506020620002778582860162000229565b9150509250929050565b6200028c81620002d0565b82525050565b6200029d81620002e4565b82525050565b6000604082019050620002ba600083018562000281565b620002c9602083018462000292565b9392505050565b6000620002dd82620002f0565b9050919050565b60008115159050919050565b600073ffffffffffffffffffffffffffffffffffffffff82169050919050565b6200031b81620002d0565b81146200032757600080fd5b50565b60805160601c61324962000357600039600081816106e201528181610b6701526110c401526132496000f3fe6080604052600436106101095760003560e01c806377c9366211610095578063bdd415af11610064578063bdd415af14610392578063bf90fb4e146103cf578063c07724ec146103fa578063d3549ebd14610423578063e8ac21011461046057610109565b806377c93662146102d457806377e20df8146102ff578063960972c71461032a578063ab98dcdd1461036757610109565b80633f532acd116100dc5780633f532acd146101c05780635d4bc0ce146101e95780636040a9661461022f5780636b1426a41461026c57806371bab666146102a957610109565b8063011f26021461010e5780630aebeb4e1461014b57806323972aef146101675780632d02cafc14610183575b600080fd5b34801561011a57600080fd5b506101356004803603810190610130919061202c565b61048b565b6040516101429190612a1f565b60405180910390f35b61016560048036038101906101609190612153565b6104b0565b005b610181600480360381019061017c9190612247565b6108d6565b005b34801561018f57600080fd5b506101aa60048036038101906101a5919061202c565b610b34565b6040516101b79190612a1f565b60405180910390f35b3480156101cc57600080fd5b506101e760048036038101906101e291906120fb565b610b65565b005b3480156101f557600080fd5b50610210600480360381019061020b9190612153565b610ee8565b6040516102269a99989796959493929190612a3a565b60405180910390f35b34801561023b57600080fd5b50610256600480360381019061025191906120a9565b610ffe565b6040516102639190612857565b60405180910390f35b34801561027857600080fd5b50610293600480360381019061028e9190612153565b61101e565b6040516102a09190612813565b60405180910390f35b3480156102b557600080fd5b506102be6110c2565b6040516102cb91906128c4565b60405180910390f35b3480156102e057600080fd5b506102e96110e6565b6040516102f69190612782565b60405180910390f35b34801561030b57600080fd5b5061031461110c565b6040516103219190612872565b60405180910390f35b34801561033657600080fd5b50610351600480360381019061034c9190612003565b611112565b60405161035e9190612835565b60405180910390f35b34801561037357600080fd5b5061037c611568565b6040516103899190612782565b60405180910390f35b34801561039e57600080fd5b506103b960048036038101906103b4919061217c565b61158e565b6040516103c69190612857565b60405180910390f35b3480156103db57600080fd5b506103e461168c565b6040516103f19190612782565b60405180910390f35b34801561040657600080fd5b50610421600480360381019061041c91906121b8565b6116b2565b005b34801561042f57600080fd5b5061044a60048036038101906104459190612153565b611a47565b6040516104579190612813565b60405180910390f35b34801561046c57600080fd5b50610475611aeb565b6040516104829190612782565b60405180910390f35b6003602052816000526040600020602052806000526040600020600091509150505481565b600060016000838152602001908152602001600020905080600a0160009054906101000a900473ffffffffffffffffffffffffffffffffffffffff1673ffffffffffffffffffffffffffffffffffffffff163373ffffffffffffffffffffffffffffffffffffffff1614610559576040517f08c379a00000000000000000000000000000000000000000000000000000000081526004016105509061295f565b60405180910390fd5b8060060160009054906101000a900460ff166105aa576040517f08c379a00000000000000000000000000000000000000000000000000000000081526004016105a1906129bf565b60405180910390fd5b6000816005018054905014156105dd5760008160060160006101000a81548160ff021916908315150217905550506108d3565b80600301548160050180549050101561062b576040517f08c379a00000000000000000000000000000000000000000000000000000000081526004016106229061293f565b60405180910390fd5b66038d7ea4c68000341015610675576040517f08c379a000000000000000000000000000000000000000000000000000000000815260040161066c9061299f565b60405180910390fd5b600860009054906101000a900473ffffffffffffffffffffffffffffffffffffffff1673ffffffffffffffffffffffffffffffffffffffff166108fc349081150290604051600060405180830381858888f193505050501580156106dd573d6000803e3d6000fd5b5060007f000000000000000000000000000000000000000000000000000000000000000073ffffffffffffffffffffffffffffffffffffffff16636e6be03f600960009054906101000a900473ffffffffffffffffffffffffffffffffffffffff16600a54600760009054906101000a900473ffffffffffffffffffffffffffffffffffffffff16600860009054906101000a900473ffffffffffffffffffffffffffffffffffffffff1630633f532acd60e01b7f31750000000000000000000000000000000000000000000000000000000000007f73697a65000000000000000000000000000000000000000000000000000000008b600301546040516020016107ea9392919061288d565b6040516020818303038152906040526040518863ffffffff1660e01b815260040161081b979695949392919061279d565b602060405180830381600087803b15801561083557600080fd5b505af1158015610849573d6000803e3d6000fd5b505050506040513d601f19601f8201168201806040525081019061086d91906120d2565b905060016004600083815260200190815260200160002060006101000a81548160ff02191690831515021790555082600560008381526020019081526020016000208190555060008260060160006101000a81548160ff02191690831515021790555050505b50565b60006001600084815260200190815260200160002090508060060160009054906101000a900460ff1661093e576040517f08c379a0000000000000000000000000000000000000000000000000000000008152600401610935906129bf565b60405180910390fd5b6001821015610982576040517f08c379a00000000000000000000000000000000000000000000000000000000081526004016109799061291f565b60405180910390fd5b8060070154421015801561099a575080600801544211155b6109d9576040517f08c379a00000000000000000000000000000000000000000000000000000000081526004016109d0906129bf565b60405180910390fd5b8181600201546109e99190612c81565b3414610a2a576040517f08c379a0000000000000000000000000000000000000000000000000000000008152600401610a21906129ff565b60405180910390fd5b34816009016000828254610a3e9190612c2b565b9250508190555060005b82811015610b2e5781600501339080600181540180825580915050600190039060005260206000200160009091909190916101000a81548173ffffffffffffffffffffffffffffffffffffffff021916908373ffffffffffffffffffffffffffffffffffffffff160217905550600360003373ffffffffffffffffffffffffffffffffffffffff1673ffffffffffffffffffffffffffffffffffffffff16815260200190815260200160002060008581526020019081526020016000206000815480929190610b1690612e64565b91905055508080610b2690612e64565b915050610a48565b50505050565b60026020528160005260406000208181548110610b5057600080fd5b90600052602060002001600091509150505481565b7f000000000000000000000000000000000000000000000000000000000000000073ffffffffffffffffffffffffffffffffffffffff163373ffffffffffffffffffffffffffffffffffffffff1614610bf3576040517f08c379a0000000000000000000000000000000000000000000000000000000008152600401610bea906128df565b60405180910390fd5b6004600084815260200190815260200160002060009054906101000a900460ff16610c53576040517f08c379a0000000000000000000000000000000000000000000000000000000008152600401610c4a9061297f565b60405180910390fd5b6004600084815260200190815260200160002060006101000a81549060ff021916905560006001600060056000878152602001908152602001600020548152602001908152602001600020905080600a0160149054906101000a900460ff1615610cf2576040517f08c379a0000000000000000000000000000000000000000000000000000000008152600401610ce9906128ff565b60405180910390fd5b60008383810190610d039190612068565b905060005b8151811015610e545760008360050180549050838381518110610d54577f4e487b7100000000000000000000000000000000000000000000000000000000600052603260045260246000fd5b6020026020010151610d669190612ead565b905083600401846005018281548110610da8577f4e487b7100000000000000000000000000000000000000000000000000000000600052603260045260246000fd5b9060005260206000200160009054906101000a900473ffffffffffffffffffffffffffffffffffffffff169080600181540180825580915050600190039060005260206000200160009091909190916101000a81548173ffffffffffffffffffffffffffffffffffffffff021916908373ffffffffffffffffffffffffffffffffffffffff160217905550610e408185600501611b11565b508080610e4c90612e64565b915050610d08565b50600182600a0160146101000a81548160ff02191690831515021790555081600a0160009054906101000a900473ffffffffffffffffffffffffffffffffffffffff1673ffffffffffffffffffffffffffffffffffffffff166108fc83600901549081150290604051600060405180830381858888f19350505050158015610ee0573d6000803e3d6000fd5b505050505050565b6001602052806000526040600020600091509050806000015490806001018054610f1190612e01565b80601f0160208091040260200160405190810160405280929190818152602001828054610f3d90612e01565b8015610f8a5780601f10610f5f57610100808354040283529160200191610f8a565b820191906000526020600020905b815481529060010190602001808311610f6d57829003601f168201915b5050505050908060020154908060030154908060060160009054906101000a900460ff169080600701549080600801549080600901549080600a0160009054906101000a900473ffffffffffffffffffffffffffffffffffffffff169080600a0160149054906101000a900460ff1690508a565b60046020528060005260406000206000915054906101000a900460ff1681565b6060600160008381526020019081526020016000206004018054806020026020016040519081016040528092919081815260200182805480156110b657602002820191906000526020600020905b8160009054906101000a900473ffffffffffffffffffffffffffffffffffffffff1673ffffffffffffffffffffffffffffffffffffffff168152602001906001019080831161106c575b50505050509050919050565b7f000000000000000000000000000000000000000000000000000000000000000081565b600760009054906101000a900473ffffffffffffffffffffffffffffffffffffffff1681565b600a5481565b60606000600260008473ffffffffffffffffffffffffffffffffffffffff1673ffffffffffffffffffffffffffffffffffffffff16815260200190815260200160002080548060200260200160405190810160405280929190818152602001828054801561119f57602002820191906000526020600020905b81548152602001906001019080831161118b575b505050505090506000815167ffffffffffffffff8111156111e9577f4e487b7100000000000000000000000000000000000000000000000000000000600052604160045260246000fd5b60405190808252806020026020018201604052801561122257816020015b61120f611caa565b8152602001906001900390816112075790505b50905060005b825181101561155d576001600084838151811061126e577f4e487b7100000000000000000000000000000000000000000000000000000000600052603260045260246000fd5b6020026020010151815260200190815260200160002060405180610180016040529081600082015481526020016001820180546112aa90612e01565b80601f01602080910402602001604051908101604052809291908181526020018280546112d690612e01565b80156113235780601f106112f857610100808354040283529160200191611323565b820191906000526020600020905b81548152906001019060200180831161130657829003601f168201915b505050505081526020016002820154815260200160038201548152602001600482018054806020026020016040519081016040528092919081815260200182805480156113c557602002820191906000526020600020905b8160009054906101000a900473ffffffffffffffffffffffffffffffffffffffff1673ffffffffffffffffffffffffffffffffffffffff168152602001906001019080831161137b575b505050505081526020016005820180548060200260200160405190810160405280929190818152602001828054801561145357602002820191906000526020600020905b8160009054906101000a900473ffffffffffffffffffffffffffffffffffffffff1673ffffffffffffffffffffffffffffffffffffffff1681526020019060010190808311611409575b505050505081526020016006820160009054906101000a900460ff16151515158152602001600782015481526020016008820154815260200160098201548152602001600a820160009054906101000a900473ffffffffffffffffffffffffffffffffffffffff1673ffffffffffffffffffffffffffffffffffffffff1673ffffffffffffffffffffffffffffffffffffffff168152602001600a820160149054906101000a900460ff16151515158152505082828151811061153f577f4e487b7100000000000000000000000000000000000000000000000000000000600052603260045260246000fd5b6020026020010181905250808061155590612e64565b915050611228565b508092505050919050565b600960009054906101000a900473ffffffffffffffffffffffffffffffffffffffff1681565b600080600090505b6001600085815260200190815260200160002060040180549050811015611680578273ffffffffffffffffffffffffffffffffffffffff1660016000868152602001908152602001600020600401828154811061161c577f4e487b7100000000000000000000000000000000000000000000000000000000600052603260045260246000fd5b9060005260206000200160009054906101000a900473ffffffffffffffffffffffffffffffffffffffff1673ffffffffffffffffffffffffffffffffffffffff16141561166d576001915050611686565b808061167890612e64565b915050611596565b50600090505b92915050565b600860009054906101000a900473ffffffffffffffffffffffffffffffffffffffff1681565b60008461ffff16116116f9576040517f08c379a00000000000000000000000000000000000000000000000000000000081526004016116f0906129df565b60405180910390fd5b6117036000611c86565b600060405180610180016040528061171b6000611c9c565b81526020018581526020018781526020018661ffff168152602001600067ffffffffffffffff811115611777577f4e487b7100000000000000000000000000000000000000000000000000000000600052604160045260246000fd5b6040519080825280602002602001820160405280156117a55781602001602082028036833780820191505090505b508152602001600067ffffffffffffffff8111156117ec577f4e487b7100000000000000000000000000000000000000000000000000000000600052604160045260246000fd5b60405190808252806020026020018201604052801561181a5781602001602082028036833780820191505090505b508152602001600115158152602001848152602001838152602001600081526020013373ffffffffffffffffffffffffffffffffffffffff16815260200160001515815250905080600160008360000151815260200190815260200160002060008201518160000155602082015181600101908051906020019061189f929190611d25565b50604082015181600201556060820151816003015560808201518160040190805190602001906118d0929190611dab565b5060a08201518160050190805190602001906118ed929190611dab565b5060c08201518160060160006101000a81548160ff02191690831515021790555060e082015181600701556101008201518160080155610120820151816009015561014082015181600a0160006101000a81548173ffffffffffffffffffffffffffffffffffffffff021916908373ffffffffffffffffffffffffffffffffffffffff16021790555061016082015181600a0160146101000a81548160ff021916908315150217905550905050600260003373ffffffffffffffffffffffffffffffffffffffff1673ffffffffffffffffffffffffffffffffffffffff168152602001908152602001600020816000015190806001815401808255809150506001900390600052602060002001600090919091909150557f0b5745354685a046e72f24602bcf00fa0ee07f0bf511afb5f2d3ab636241e41b8160000151604051611a379190612a1f565b60405180910390a1505050505050565b606060016000838152602001908152602001600020600501805480602002602001604051908101604052809291908181526020018280548015611adf57602002820191906000526020600020905b8160009054906101000a900473ffffffffffffffffffffffffffffffffffffffff1673ffffffffffffffffffffffffffffffffffffffff1681526020019060010190808311611a95575b50505050509050919050565b600660009054906101000a900473ffffffffffffffffffffffffffffffffffffffff1681565b80805490508210611b2157600080fd5b8060018280549050611b339190612cdb565b81548110611b6a577f4e487b7100000000000000000000000000000000000000000000000000000000600052603260045260246000fd5b9060005260206000200160009054906101000a900473ffffffffffffffffffffffffffffffffffffffff16818381548110611bce577f4e487b7100000000000000000000000000000000000000000000000000000000600052603260045260246000fd5b9060005260206000200160006101000a81548173ffffffffffffffffffffffffffffffffffffffff021916908373ffffffffffffffffffffffffffffffffffffffff16021790555080805480611c4d577f4e487b7100000000000000000000000000000000000000000000000000000000600052603160045260246000fd5b6001900381819060005260206000200160006101000a81549073ffffffffffffffffffffffffffffffffffffffff021916905590555050565b6001816000016000828254019250508190555050565b600081600001549050919050565b604051806101800160405280600081526020016060815260200160008152602001600081526020016060815260200160608152602001600015158152602001600081526020016000815260200160008152602001600073ffffffffffffffffffffffffffffffffffffffff1681526020016000151581525090565b828054611d3190612e01565b90600052602060002090601f016020900481019282611d535760008555611d9a565b82601f10611d6c57805160ff1916838001178555611d9a565b82800160010185558215611d9a579182015b82811115611d99578251825591602001919060010190611d7e565b5b509050611da79190611e35565b5090565b828054828255906000526020600020908101928215611e24579160200282015b82811115611e235782518260006101000a81548173ffffffffffffffffffffffffffffffffffffffff021916908373ffffffffffffffffffffffffffffffffffffffff16021790555091602001919060010190611dcb565b5b509050611e319190611e35565b5090565b5b80821115611e4e576000816000905550600101611e36565b5090565b6000611e65611e6084612b02565b612add565b90508083825260208201905082856020860282011115611e8457600080fd5b60005b85811015611eb45781611e9a8882611fee565b845260208401935060208301925050600181019050611e87565b5050509392505050565b6000611ed1611ecc84612b2e565b612add565b905082815260208101848484011115611ee957600080fd5b611ef4848285612dbf565b509392505050565b600081359050611f0b816131b7565b92915050565b600082601f830112611f2257600080fd5b8135611f32848260208601611e52565b91505092915050565b600081359050611f4a816131ce565b92915050565b600081519050611f5f816131ce565b92915050565b60008083601f840112611f7757600080fd5b8235905067ffffffffffffffff811115611f9057600080fd5b602083019150836001820283011115611fa857600080fd5b9250929050565b600082601f830112611fc057600080fd5b8135611fd0848260208601611ebe565b91505092915050565b600081359050611fe8816131e5565b92915050565b600081359050611ffd816131fc565b92915050565b60006020828403121561201557600080fd5b600061202384828501611efc565b91505092915050565b6000806040838503121561203f57600080fd5b600061204d85828601611efc565b925050602061205e85828601611fee565b9150509250929050565b60006020828403121561207a57600080fd5b600082013567ffffffffffffffff81111561209457600080fd5b6120a084828501611f11565b91505092915050565b6000602082840312156120bb57600080fd5b60006120c984828501611f3b565b91505092915050565b6000602082840312156120e457600080fd5b60006120f284828501611f50565b91505092915050565b60008060006040848603121561211057600080fd5b600061211e86828701611f3b565b935050602084013567ffffffffffffffff81111561213b57600080fd5b61214786828701611f65565b92509250509250925092565b60006020828403121561216557600080fd5b600061217384828501611fee565b91505092915050565b6000806040838503121561218f57600080fd5b600061219d85828601611fee565b92505060206121ae85828601611efc565b9150509250929050565b600080600080600060a086880312156121d057600080fd5b60006121de88828901611fee565b95505060206121ef88828901611fd9565b945050604086013567ffffffffffffffff81111561220c57600080fd5b61221888828901611faf565b935050606061222988828901611fee565b925050608061223a88828901611fee565b9150509295509295909350565b6000806040838503121561225a57600080fd5b600061226885828601611fee565b925050602061227985828601611fee565b9150509250929050565b600061228f83836122af565b60208301905092915050565b60006122a78383612652565b905092915050565b6122b881612d0f565b82525050565b6122c781612d0f565b82525050565b60006122d882612b7f565b6122e28185612bc5565b93506122ed83612b5f565b8060005b8381101561231e5781516123058882612283565b975061231083612bab565b9250506001810190506122f1565b5085935050505092915050565b600061233682612b7f565b6123408185612bd6565b935061234b83612b5f565b8060005b8381101561237c5781516123638882612283565b975061236e83612bab565b92505060018101905061234f565b5085935050505092915050565b600061239482612b8a565b61239e8185612be7565b9350836020820285016123b085612b6f565b8060005b858110156123ec57848403895281516123cd858261229b565b94506123d883612bb8565b925060208a019950506001810190506123b4565b50829750879550505050505092915050565b61240781612d21565b82525050565b61241681612d21565b82525050565b61242581612d2d565b82525050565b61243481612d37565b82525050565b600061244582612b95565b61244f8185612bf8565b935061245f818560208601612dce565b61246881612f9a565b840191505092915050565b61247c81612d9b565b82525050565b600061248d82612ba0565b6124978185612c09565b93506124a7818560208601612dce565b6124b081612f9a565b840191505092915050565b60006124c682612ba0565b6124d08185612c1a565b93506124e0818560208601612dce565b6124e981612f9a565b840191505092915050565b6000612501601683612c1a565b915061250c82612fab565b602082019050919050565b6000612524601683612c1a565b915061252f82612fd4565b602082019050919050565b6000612547601e83612c1a565b915061255282612ffd565b602082019050919050565b600061256a601283612c1a565b915061257582613026565b602082019050919050565b600061258d602283612c1a565b91506125988261304f565b604082019050919050565b60006125b0601483612c1a565b91506125bb8261309e565b602082019050919050565b60006125d3602c83612c1a565b91506125de826130c7565b604082019050919050565b60006125f6601083612c1a565b915061260182613116565b602082019050919050565b6000612619602383612c1a565b91506126248261313f565b604082019050919050565b600061263c601a83612c1a565b91506126478261318e565b602082019050919050565b60006101808301600083015161266b6000860182612764565b50602083015184820360208601526126838282612482565b91505060408301516126986040860182612764565b5060608301516126ab6060860182612764565b50608083015184820360808601526126c382826122cd565b91505060a083015184820360a08601526126dd82826122cd565b91505060c08301516126f260c08601826123fe565b5060e083015161270560e0860182612764565b5061010083015161271a610100860182612764565b5061012083015161272f610120860182612764565b506101408301516127446101408601826122af565b506101608301516127596101608601826123fe565b508091505092915050565b61276d81612d91565b82525050565b61277c81612d91565b82525050565b600060208201905061279760008301846122be565b92915050565b600060e0820190506127b2600083018a6122be565b6127bf602083018961241c565b6127cc60408301886122be565b6127d960608301876122be565b6127e660808301866122be565b6127f360a083018561242b565b81810360c0830152612805818461243a565b905098975050505050505050565b6000602082019050818103600083015261282d818461232b565b905092915050565b6000602082019050818103600083015261284f8184612389565b905092915050565b600060208201905061286c600083018461240d565b92915050565b6000602082019050612887600083018461241c565b92915050565b60006060820190506128a2600083018661241c565b6128af602083018561241c565b6128bc6040830184612773565b949350505050565b60006020820190506128d96000830184612473565b92915050565b600060208201905081810360008301526128f8816124f4565b9050919050565b6000602082019050818103600083015261291881612517565b9050919050565b600060208201905081810360008301526129388161253a565b9050919050565b600060208201905081810360008301526129588161255d565b9050919050565b6000602082019050818103600083015261297881612580565b9050919050565b60006020820190508181036000830152612998816125a3565b9050919050565b600060208201905081810360008301526129b8816125c6565b9050919050565b600060208201905081810360008301526129d8816125e9565b9050919050565b600060208201905081810360008301526129f88161260c565b9050919050565b60006020820190508181036000830152612a188161262f565b9050919050565b6000602082019050612a346000830184612773565b92915050565b600061014082019050612a50600083018d612773565b8181036020830152612a62818c6124bb565b9050612a71604083018b612773565b612a7e606083018a612773565b612a8b608083018961240d565b612a9860a0830188612773565b612aa560c0830187612773565b612ab260e0830186612773565b612ac06101008301856122be565b612ace61012083018461240d565b9b9a5050505050505050505050565b6000612ae7612af8565b9050612af38282612e33565b919050565b6000604051905090565b600067ffffffffffffffff821115612b1d57612b1c612f6b565b5b602082029050602081019050919050565b600067ffffffffffffffff821115612b4957612b48612f6b565b5b612b5282612f9a565b9050602081019050919050565b6000819050602082019050919050565b6000819050602082019050919050565b600081519050919050565b600081519050919050565b600081519050919050565b600081519050919050565b6000602082019050919050565b6000602082019050919050565b600082825260208201905092915050565b600082825260208201905092915050565b600082825260208201905092915050565b600082825260208201905092915050565b600082825260208201905092915050565b600082825260208201905092915050565b6000612c3682612d91565b9150612c4183612d91565b9250827fffffffffffffffffffffffffffffffffffffffffffffffffffffffffffffffff03821115612c7657612c75612ede565b5b828201905092915050565b6000612c8c82612d91565b9150612c9783612d91565b9250817fffffffffffffffffffffffffffffffffffffffffffffffffffffffffffffffff0483118215151615612cd057612ccf612ede565b5b828202905092915050565b6000612ce682612d91565b9150612cf183612d91565b925082821015612d0457612d03612ede565b5b828203905092915050565b6000612d1a82612d71565b9050919050565b60008115159050919050565b6000819050919050565b60007fffffffff0000000000000000000000000000000000000000000000000000000082169050919050565b600061ffff82169050919050565b600073ffffffffffffffffffffffffffffffffffffffff82169050919050565b6000819050919050565b6000612da682612dad565b9050919050565b6000612db882612d71565b9050919050565b82818337600083830152505050565b60005b83811015612dec578082015181840152602081019050612dd1565b83811115612dfb576000848401525b50505050565b60006002820490506001821680612e1957607f821691505b60208210811415612e2d57612e2c612f3c565b5b50919050565b612e3c82612f9a565b810181811067ffffffffffffffff82111715612e5b57612e5a612f6b565b5b80604052505050565b6000612e6f82612d91565b91507fffffffffffffffffffffffffffffffffffffffffffffffffffffffffffffffff821415612ea257612ea1612ede565b5b600182019050919050565b6000612eb882612d91565b9150612ec383612d91565b925082612ed357612ed2612f0d565b5b828206905092915050565b7f4e487b7100000000000000000000000000000000000000000000000000000000600052601160045260246000fd5b7f4e487b7100000000000000000000000000000000000000000000000000000000600052601260045260246000fd5b7f4e487b7100000000000000000000000000000000000000000000000000000000600052602260045260246000fd5b7f4e487b7100000000000000000000000000000000000000000000000000000000600052604160045260246000fd5b6000601f19601f8301169050919050565b7f43616c6c6572206e6f74204169726e6f64652052525000000000000000000000600082015250565b7f57696e6e65727320616c7265616479207069636b656400000000000000000000600082015250565b7f456e74727920636f756e74206d757374206265206174206c6561737420310000600082015250565b7f4e6f7420656e6f75676820656e74726965730000000000000000000000000000600082015250565b7f4f6e6c7920726166666c65206f776e65722063616e207069636b2077696e6e6560008201527f7273000000000000000000000000000000000000000000000000000000000000602082015250565b7f4e6f20737563682072657175657374206d616465000000000000000000000000600082015250565b7f506c656173652073656e6420736f6d652066756e647320746f2074686520737060008201527f6f6e736f722077616c6c65740000000000000000000000000000000000000000602082015250565b7f526166666c6520697320636c6f73656400000000000000000000000000000000600082015250565b7f57696e6e657220636f756e74206d75737420626520677265617465722074686160008201527f6e20300000000000000000000000000000000000000000000000000000000000602082015250565b7f456e74727920707269636520646f6573206e6f74206d61746368000000000000600082015250565b6131c081612d0f565b81146131cb57600080fd5b50565b6131d781612d2d565b81146131e257600080fd5b50565b6131ee81612d63565b81146131f957600080fd5b50565b61320581612d91565b811461321057600080fd5b5056fea2646970667358221220e8d694614a7c67902e5503b46fa9e9e193d3de2080ae68ec4994847e65fe1a5264736f6c63430008040033",
  "linkReferences": {},
  "deployedLinkReferences": {}
}