{
  "_format": "hh-sol-artifact-1",
  "contractName": "Raffler",
  "sourceName": "contracts/Raffle.sol",
  "abi": [
    {
      "inputs": [
        {
          "internalType": "address",
          "name": "_airnodeRrpAddress",
          "type": "address"
        },
        {
          "internalType": "address",
          "name": "_sponsorWallet",
          "type": "address"
        }
      ],
      "stateMutability": "nonpayable",
      "type": "constructor"
    },
    {
      "anonymous": false,
      "inputs": [
        {
          "indexed": false,
          "internalType": "uint256",
          "name": "_raffleId",
          "type": "uint256"
        }
      ],
      "name": "RaffleCreated",
      "type": "event"
    },
    {
      "inputs": [],
      "name": "ANUairnodeAddress",
      "outputs": [
        {
          "internalType": "address",
          "name": "",
          "type": "address"
        }
      ],
      "stateMutability": "view",
      "type": "function"
    },
    {
      "inputs": [
        {
          "internalType": "address",
          "name": "",
          "type": "address"
        },
        {
          "internalType": "uint256",
          "name": "",
          "type": "uint256"
        }
      ],
      "name": "accountRaffles",
      "outputs": [
        {
          "internalType": "uint256",
          "name": "",
          "type": "uint256"
        }
      ],
      "stateMutability": "view",
      "type": "function"
    },
    {
      "inputs": [],
      "name": "airnodeRrp",
      "outputs": [
        {
          "internalType": "contract IAirnodeRrpV0",
          "name": "",
          "type": "address"
        }
      ],
      "stateMutability": "view",
      "type": "function"
    },
    {
      "inputs": [],
      "name": "airnodeRrpAddress",
      "outputs": [
        {
          "internalType": "address",
          "name": "",
          "type": "address"
        }
      ],
      "stateMutability": "view",
      "type": "function"
    },
    {
      "inputs": [
        {
          "internalType": "uint256",
          "name": "_raffleId",
          "type": "uint256"
        }
      ],
      "name": "close",
      "outputs": [],
      "stateMutability": "payable",
      "type": "function"
    },
    {
      "inputs": [
        {
          "internalType": "uint256",
          "name": "_price",
          "type": "uint256"
        },
        {
          "internalType": "uint16",
          "name": "_winnerCount",
          "type": "uint16"
        },
        {
          "internalType": "string",
          "name": "_title",
          "type": "string"
        },
        {
          "internalType": "uint256",
          "name": "_startTime",
          "type": "uint256"
        },
        {
          "internalType": "uint256",
          "name": "_endTime",
          "type": "uint256"
        }
      ],
      "name": "create",
      "outputs": [],
      "stateMutability": "nonpayable",
      "type": "function"
    },
    {
      "inputs": [],
      "name": "endpointId",
      "outputs": [
        {
          "internalType": "bytes32",
          "name": "",
          "type": "bytes32"
        }
      ],
      "stateMutability": "view",
      "type": "function"
    },
    {
      "inputs": [
        {
          "internalType": "uint256",
          "name": "_raffleId",
          "type": "uint256"
        },
        {
          "internalType": "uint256",
          "name": "entryCount",
          "type": "uint256"
        }
      ],
      "name": "enter",
      "outputs": [],
      "stateMutability": "payable",
      "type": "function"
    },
    {
      "inputs": [
        {
          "internalType": "address",
          "name": "_account",
          "type": "address"
        }
      ],
      "name": "getAccountRaffles",
      "outputs": [
        {
          "components": [
            {
              "internalType": "uint256",
              "name": "id",
              "type": "uint256"
            },
            {
              "internalType": "string",
              "name": "title",
              "type": "string"
            },
            {
              "internalType": "uint256",
              "name": "price",
              "type": "uint256"
            },
            {
              "internalType": "uint256",
              "name": "winnerCount",
              "type": "uint256"
            },
            {
              "internalType": "address[]",
              "name": "winners",
              "type": "address[]"
            },
            {
              "internalType": "address[]",
              "name": "entries",
              "type": "address[]"
            },
            {
              "internalType": "bool",
              "name": "open",
              "type": "bool"
            },
            {
              "internalType": "uint256",
              "name": "startTime",
              "type": "uint256"
            },
            {
              "internalType": "uint256",
              "name": "endTime",
              "type": "uint256"
            },
            {
              "internalType": "uint256",
              "name": "balance",
              "type": "uint256"
            },
            {
              "internalType": "address",
              "name": "owner",
              "type": "address"
            },
            {
              "internalType": "bool",
              "name": "airnodeSuccess",
              "type": "bool"
            }
          ],
          "internalType": "struct Raffler.Raffle[]",
          "name": "",
          "type": "tuple[]"
        }
      ],
      "stateMutability": "view",
      "type": "function"
    },
    {
      "inputs": [
        {
          "internalType": "uint256",
          "name": "_raffleId",
          "type": "uint256"
        }
      ],
      "name": "getEntries",
      "outputs": [
        {
          "internalType": "address[]",
          "name": "",
          "type": "address[]"
        }
      ],
      "stateMutability": "view",
      "type": "function"
    },
    {
      "inputs": [
        {
          "internalType": "uint256",
          "name": "_raffleId",
          "type": "uint256"
        }
      ],
      "name": "getWinners",
      "outputs": [
        {
          "internalType": "address[]",
          "name": "",
          "type": "address[]"
        }
      ],
      "stateMutability": "view",
      "type": "function"
    },
    {
      "inputs": [
        {
          "internalType": "uint256",
          "name": "_raffleId",
          "type": "uint256"
        },
        {
          "internalType": "address",
          "name": "_address",
          "type": "address"
        }
      ],
      "name": "isWinner",
      "outputs": [
        {
          "internalType": "bool",
          "name": "",
          "type": "bool"
        }
      ],
      "stateMutability": "view",
      "type": "function"
    },
    {
      "inputs": [
        {
          "internalType": "bytes32",
          "name": "",
          "type": "bytes32"
        }
      ],
      "name": "pendingRequestIds",
      "outputs": [
        {
          "internalType": "bool",
          "name": "",
          "type": "bool"
        }
      ],
      "stateMutability": "view",
      "type": "function"
    },
    {
      "inputs": [
        {
          "internalType": "bytes32",
          "name": "requestId",
          "type": "bytes32"
        },
        {
          "internalType": "bytes",
          "name": "data",
          "type": "bytes"
        }
      ],
      "name": "pickWinners",
      "outputs": [],
      "stateMutability": "nonpayable",
      "type": "function"
    },
    {
      "inputs": [
        {
          "internalType": "uint256",
          "name": "",
          "type": "uint256"
        }
      ],
      "name": "raffles",
      "outputs": [
        {
          "internalType": "uint256",
          "name": "id",
          "type": "uint256"
        },
        {
          "internalType": "string",
          "name": "title",
          "type": "string"
        },
        {
          "internalType": "uint256",
          "name": "price",
          "type": "uint256"
        },
        {
          "internalType": "uint256",
          "name": "winnerCount",
          "type": "uint256"
        },
        {
          "internalType": "bool",
          "name": "open",
          "type": "bool"
        },
        {
          "internalType": "uint256",
          "name": "startTime",
          "type": "uint256"
        },
        {
          "internalType": "uint256",
          "name": "endTime",
          "type": "uint256"
        },
        {
          "internalType": "uint256",
          "name": "balance",
          "type": "uint256"
        },
        {
          "internalType": "address",
          "name": "owner",
          "type": "address"
        },
        {
          "internalType": "bool",
          "name": "airnodeSuccess",
          "type": "bool"
        }
      ],
      "stateMutability": "view",
      "type": "function"
    },
    {
      "inputs": [],
      "name": "sponsor",
      "outputs": [
        {
          "internalType": "address",
          "name": "",
          "type": "address"
        }
      ],
      "stateMutability": "view",
      "type": "function"
    },
    {
      "inputs": [],
      "name": "sponsorWallet",
      "outputs": [
        {
          "internalType": "address",
          "name": "",
          "type": "address"
        }
      ],
      "stateMutability": "view",
      "type": "function"
    }
  ],
  "bytecode": "0x60a0604052739d3c147ca16db954873a498e0af5852ab39139f2600860006101000a81548173ffffffffffffffffffffffffffffffffffffffff021916908373ffffffffffffffffffffffffffffffffffffffff1602179055507f27cc2713e7f968e4e86ed274a051a5c8aaee9cca66946f23af6f29ecea9704c360001b6009553480156200008d57600080fd5b50604051620034cd380380620034cd8339818101604052810190620000b3919062000240565b818073ffffffffffffffffffffffffffffffffffffffff1660808173ffffffffffffffffffffffffffffffffffffffff1660601b815250508073ffffffffffffffffffffffffffffffffffffffff1663addf027c3060016040518363ffffffff1660e01b815260040162000129929190620002a3565b600060405180830381600087803b1580156200014457600080fd5b505af115801562000159573d6000803e3d6000fd5b505050505081600560006101000a81548173ffffffffffffffffffffffffffffffffffffffff021916908373ffffffffffffffffffffffffffffffffffffffff16021790555080600760006101000a81548173ffffffffffffffffffffffffffffffffffffffff021916908373ffffffffffffffffffffffffffffffffffffffff16021790555033600660006101000a81548173ffffffffffffffffffffffffffffffffffffffff021916908373ffffffffffffffffffffffffffffffffffffffff16021790555050506200032a565b6000815190506200023a8162000310565b92915050565b600080604083850312156200025457600080fd5b6000620002648582860162000229565b9250506020620002778582860162000229565b9150509250929050565b6200028c81620002d0565b82525050565b6200029d81620002e4565b82525050565b6000604082019050620002ba600083018562000281565b620002c9602083018462000292565b9392505050565b6000620002dd82620002f0565b9050919050565b60008115159050919050565b600073ffffffffffffffffffffffffffffffffffffffff82169050919050565b6200031b81620002d0565b81146200032757600080fd5b50565b60805160601c613176620003576000396000818161067501528181610a940152610ff101526131766000f3fe6080604052600436106100fe5760003560e01c806377c9366211610095578063bdd415af11610064578063bdd415af1461034a578063bf90fb4e14610387578063c07724ec146103b2578063d3549ebd146103db578063e8ac210114610418576100fe565b806377c936621461028c57806377e20df8146102b7578063960972c7146102e2578063ab98dcdd1461031f576100fe565b80635d4bc0ce116100d15780635d4bc0ce146101a15780636040a966146101e75780636b1426a41461022457806371bab66614610261576100fe565b80630aebeb4e1461010357806323972aef1461011f5780632d02cafc1461013b5780633f532acd14610178575b600080fd5b61011d60048036038101906101189190612080565b610443565b005b61013960048036038101906101349190612174565b610869565b005b34801561014757600080fd5b50610162600480360381019061015d9190611f59565b610a61565b60405161016f919061294c565b60405180910390f35b34801561018457600080fd5b5061019f600480360381019061019a9190612028565b610a92565b005b3480156101ad57600080fd5b506101c860048036038101906101c39190612080565b610e15565b6040516101de9a99989796959493929190612967565b60405180910390f35b3480156101f357600080fd5b5061020e60048036038101906102099190611fd6565b610f2b565b60405161021b9190612784565b60405180910390f35b34801561023057600080fd5b5061024b60048036038101906102469190612080565b610f4b565b6040516102589190612740565b60405180910390f35b34801561026d57600080fd5b50610276610fef565b60405161028391906127f1565b60405180910390f35b34801561029857600080fd5b506102a1611013565b6040516102ae91906126af565b60405180910390f35b3480156102c357600080fd5b506102cc611039565b6040516102d9919061279f565b60405180910390f35b3480156102ee57600080fd5b5061030960048036038101906103049190611f30565b61103f565b6040516103169190612762565b60405180910390f35b34801561032b57600080fd5b50610334611495565b60405161034191906126af565b60405180910390f35b34801561035657600080fd5b50610371600480360381019061036c91906120a9565b6114bb565b60405161037e9190612784565b60405180910390f35b34801561039357600080fd5b5061039c6115b9565b6040516103a991906126af565b60405180910390f35b3480156103be57600080fd5b506103d960048036038101906103d491906120e5565b6115df565b005b3480156103e757600080fd5b5061040260048036038101906103fd9190612080565b611974565b60405161040f9190612740565b60405180910390f35b34801561042457600080fd5b5061042d611a18565b60405161043a91906126af565b60405180910390f35b600060016000838152602001908152602001600020905080600a0160009054906101000a900473ffffffffffffffffffffffffffffffffffffffff1673ffffffffffffffffffffffffffffffffffffffff163373ffffffffffffffffffffffffffffffffffffffff16146104ec576040517f08c379a00000000000000000000000000000000000000000000000000000000081526004016104e39061288c565b60405180910390fd5b8060060160009054906101000a900460ff1661053d576040517f08c379a0000000000000000000000000000000000000000000000000000000008152600401610534906128ec565b60405180910390fd5b6000816005018054905014156105705760008160060160006101000a81548160ff02191690831515021790555050610866565b8060030154816005018054905010156105be576040517f08c379a00000000000000000000000000000000000000000000000000000000081526004016105b59061286c565b60405180910390fd5b66038d7ea4c68000341015610608576040517f08c379a00000000000000000000000000000000000000000000000000000000081526004016105ff906128cc565b60405180910390fd5b600760009054906101000a900473ffffffffffffffffffffffffffffffffffffffff1673ffffffffffffffffffffffffffffffffffffffff166108fc349081150290604051600060405180830381858888f19350505050158015610670573d6000803e3d6000fd5b5060007f000000000000000000000000000000000000000000000000000000000000000073ffffffffffffffffffffffffffffffffffffffff16636e6be03f600860009054906101000a900473ffffffffffffffffffffffffffffffffffffffff16600954600660009054906101000a900473ffffffffffffffffffffffffffffffffffffffff16600760009054906101000a900473ffffffffffffffffffffffffffffffffffffffff1630633f532acd60e01b7f31750000000000000000000000000000000000000000000000000000000000007f73697a65000000000000000000000000000000000000000000000000000000008b6003015460405160200161077d939291906127ba565b6040516020818303038152906040526040518863ffffffff1660e01b81526004016107ae97969594939291906126ca565b602060405180830381600087803b1580156107c857600080fd5b505af11580156107dc573d6000803e3d6000fd5b505050506040513d601f19601f820116820180604052508101906108009190611fff565b905060016003600083815260200190815260200160002060006101000a81548160ff02191690831515021790555082600460008381526020019081526020016000208190555060008260060160006101000a81548160ff02191690831515021790555050505b50565b60006001600084815260200190815260200160002090508060060160009054906101000a900460ff166108d1576040517f08c379a00000000000000000000000000000000000000000000000000000000081526004016108c8906128ec565b60405180910390fd5b6001821015610915576040517f08c379a000000000000000000000000000000000000000000000000000000000815260040161090c9061284c565b60405180910390fd5b8060070154421015801561092d575080600801544211155b61096c576040517f08c379a0000000000000000000000000000000000000000000000000000000008152600401610963906128ec565b60405180910390fd5b81816002015461097c9190612bae565b34146109bd576040517f08c379a00000000000000000000000000000000000000000000000000000000081526004016109b49061292c565b60405180910390fd5b348160090160008282546109d19190612b58565b9250508190555060005b82811015610a5b5781600501339080600181540180825580915050600190039060005260206000200160009091909190916101000a81548173ffffffffffffffffffffffffffffffffffffffff021916908373ffffffffffffffffffffffffffffffffffffffff1602179055508080610a5390612d91565b9150506109db565b50505050565b60026020528160005260406000208181548110610a7d57600080fd5b90600052602060002001600091509150505481565b7f000000000000000000000000000000000000000000000000000000000000000073ffffffffffffffffffffffffffffffffffffffff163373ffffffffffffffffffffffffffffffffffffffff1614610b20576040517f08c379a0000000000000000000000000000000000000000000000000000000008152600401610b179061280c565b60405180910390fd5b6003600084815260200190815260200160002060009054906101000a900460ff16610b80576040517f08c379a0000000000000000000000000000000000000000000000000000000008152600401610b77906128ac565b60405180910390fd5b6003600084815260200190815260200160002060006101000a81549060ff021916905560006001600060046000878152602001908152602001600020548152602001908152602001600020905080600a0160149054906101000a900460ff1615610c1f576040517f08c379a0000000000000000000000000000000000000000000000000000000008152600401610c169061282c565b60405180910390fd5b60008383810190610c309190611f95565b905060005b8151811015610d815760008360050180549050838381518110610c81577f4e487b7100000000000000000000000000000000000000000000000000000000600052603260045260246000fd5b6020026020010151610c939190612dda565b905083600401846005018281548110610cd5577f4e487b7100000000000000000000000000000000000000000000000000000000600052603260045260246000fd5b9060005260206000200160009054906101000a900473ffffffffffffffffffffffffffffffffffffffff169080600181540180825580915050600190039060005260206000200160009091909190916101000a81548173ffffffffffffffffffffffffffffffffffffffff021916908373ffffffffffffffffffffffffffffffffffffffff160217905550610d6d8185600501611a3e565b508080610d7990612d91565b915050610c35565b50600182600a0160146101000a81548160ff02191690831515021790555081600a0160009054906101000a900473ffffffffffffffffffffffffffffffffffffffff1673ffffffffffffffffffffffffffffffffffffffff166108fc83600901549081150290604051600060405180830381858888f19350505050158015610e0d573d6000803e3d6000fd5b505050505050565b6001602052806000526040600020600091509050806000015490806001018054610e3e90612d2e565b80601f0160208091040260200160405190810160405280929190818152602001828054610e6a90612d2e565b8015610eb75780601f10610e8c57610100808354040283529160200191610eb7565b820191906000526020600020905b815481529060010190602001808311610e9a57829003601f168201915b5050505050908060020154908060030154908060060160009054906101000a900460ff169080600701549080600801549080600901549080600a0160009054906101000a900473ffffffffffffffffffffffffffffffffffffffff169080600a0160149054906101000a900460ff1690508a565b60036020528060005260406000206000915054906101000a900460ff1681565b606060016000838152602001908152602001600020600401805480602002602001604051908101604052809291908181526020018280548015610fe357602002820191906000526020600020905b8160009054906101000a900473ffffffffffffffffffffffffffffffffffffffff1673ffffffffffffffffffffffffffffffffffffffff1681526020019060010190808311610f99575b50505050509050919050565b7f000000000000000000000000000000000000000000000000000000000000000081565b600660009054906101000a900473ffffffffffffffffffffffffffffffffffffffff1681565b60095481565b60606000600260008473ffffffffffffffffffffffffffffffffffffffff1673ffffffffffffffffffffffffffffffffffffffff1681526020019081526020016000208054806020026020016040519081016040528092919081815260200182805480156110cc57602002820191906000526020600020905b8154815260200190600101908083116110b8575b505050505090506000815167ffffffffffffffff811115611116577f4e487b7100000000000000000000000000000000000000000000000000000000600052604160045260246000fd5b60405190808252806020026020018201604052801561114f57816020015b61113c611bd7565b8152602001906001900390816111345790505b50905060005b825181101561148a576001600084838151811061119b577f4e487b7100000000000000000000000000000000000000000000000000000000600052603260045260246000fd5b6020026020010151815260200190815260200160002060405180610180016040529081600082015481526020016001820180546111d790612d2e565b80601f016020809104026020016040519081016040528092919081815260200182805461120390612d2e565b80156112505780601f1061122557610100808354040283529160200191611250565b820191906000526020600020905b81548152906001019060200180831161123357829003601f168201915b505050505081526020016002820154815260200160038201548152602001600482018054806020026020016040519081016040528092919081815260200182805480156112f257602002820191906000526020600020905b8160009054906101000a900473ffffffffffffffffffffffffffffffffffffffff1673ffffffffffffffffffffffffffffffffffffffff16815260200190600101908083116112a8575b505050505081526020016005820180548060200260200160405190810160405280929190818152602001828054801561138057602002820191906000526020600020905b8160009054906101000a900473ffffffffffffffffffffffffffffffffffffffff1673ffffffffffffffffffffffffffffffffffffffff1681526020019060010190808311611336575b505050505081526020016006820160009054906101000a900460ff16151515158152602001600782015481526020016008820154815260200160098201548152602001600a820160009054906101000a900473ffffffffffffffffffffffffffffffffffffffff1673ffffffffffffffffffffffffffffffffffffffff1673ffffffffffffffffffffffffffffffffffffffff168152602001600a820160149054906101000a900460ff16151515158152505082828151811061146c577f4e487b7100000000000000000000000000000000000000000000000000000000600052603260045260246000fd5b6020026020010181905250808061148290612d91565b915050611155565b508092505050919050565b600860009054906101000a900473ffffffffffffffffffffffffffffffffffffffff1681565b600080600090505b60016000858152602001908152602001600020600401805490508110156115ad578273ffffffffffffffffffffffffffffffffffffffff16600160008681526020019081526020016000206004018281548110611549577f4e487b7100000000000000000000000000000000000000000000000000000000600052603260045260246000fd5b9060005260206000200160009054906101000a900473ffffffffffffffffffffffffffffffffffffffff1673ffffffffffffffffffffffffffffffffffffffff16141561159a5760019150506115b3565b80806115a590612d91565b9150506114c3565b50600090505b92915050565b600760009054906101000a900473ffffffffffffffffffffffffffffffffffffffff1681565b60008461ffff1611611626576040517f08c379a000000000000000000000000000000000000000000000000000000000815260040161161d9061290c565b60405180910390fd5b6116306000611bb3565b60006040518061018001604052806116486000611bc9565b81526020018581526020018781526020018661ffff168152602001600067ffffffffffffffff8111156116a4577f4e487b7100000000000000000000000000000000000000000000000000000000600052604160045260246000fd5b6040519080825280602002602001820160405280156116d25781602001602082028036833780820191505090505b508152602001600067ffffffffffffffff811115611719577f4e487b7100000000000000000000000000000000000000000000000000000000600052604160045260246000fd5b6040519080825280602002602001820160405280156117475781602001602082028036833780820191505090505b508152602001600115158152602001848152602001838152602001600081526020013373ffffffffffffffffffffffffffffffffffffffff1681526020016000151581525090508060016000836000015181526020019081526020016000206000820151816000015560208201518160010190805190602001906117cc929190611c52565b50604082015181600201556060820151816003015560808201518160040190805190602001906117fd929190611cd8565b5060a082015181600501908051906020019061181a929190611cd8565b5060c08201518160060160006101000a81548160ff02191690831515021790555060e082015181600701556101008201518160080155610120820151816009015561014082015181600a0160006101000a81548173ffffffffffffffffffffffffffffffffffffffff021916908373ffffffffffffffffffffffffffffffffffffffff16021790555061016082015181600a0160146101000a81548160ff021916908315150217905550905050600260003373ffffffffffffffffffffffffffffffffffffffff1673ffffffffffffffffffffffffffffffffffffffff168152602001908152602001600020816000015190806001815401808255809150506001900390600052602060002001600090919091909150557f0b5745354685a046e72f24602bcf00fa0ee07f0bf511afb5f2d3ab636241e41b8160000151604051611964919061294c565b60405180910390a1505050505050565b606060016000838152602001908152602001600020600501805480602002602001604051908101604052809291908181526020018280548015611a0c57602002820191906000526020600020905b8160009054906101000a900473ffffffffffffffffffffffffffffffffffffffff1673ffffffffffffffffffffffffffffffffffffffff16815260200190600101908083116119c2575b50505050509050919050565b600560009054906101000a900473ffffffffffffffffffffffffffffffffffffffff1681565b80805490508210611a4e57600080fd5b8060018280549050611a609190612c08565b81548110611a97577f4e487b7100000000000000000000000000000000000000000000000000000000600052603260045260246000fd5b9060005260206000200160009054906101000a900473ffffffffffffffffffffffffffffffffffffffff16818381548110611afb577f4e487b7100000000000000000000000000000000000000000000000000000000600052603260045260246000fd5b9060005260206000200160006101000a81548173ffffffffffffffffffffffffffffffffffffffff021916908373ffffffffffffffffffffffffffffffffffffffff16021790555080805480611b7a577f4e487b7100000000000000000000000000000000000000000000000000000000600052603160045260246000fd5b6001900381819060005260206000200160006101000a81549073ffffffffffffffffffffffffffffffffffffffff021916905590555050565b6001816000016000828254019250508190555050565b600081600001549050919050565b604051806101800160405280600081526020016060815260200160008152602001600081526020016060815260200160608152602001600015158152602001600081526020016000815260200160008152602001600073ffffffffffffffffffffffffffffffffffffffff1681526020016000151581525090565b828054611c5e90612d2e565b90600052602060002090601f016020900481019282611c805760008555611cc7565b82601f10611c9957805160ff1916838001178555611cc7565b82800160010185558215611cc7579182015b82811115611cc6578251825591602001919060010190611cab565b5b509050611cd49190611d62565b5090565b828054828255906000526020600020908101928215611d51579160200282015b82811115611d505782518260006101000a81548173ffffffffffffffffffffffffffffffffffffffff021916908373ffffffffffffffffffffffffffffffffffffffff16021790555091602001919060010190611cf8565b5b509050611d5e9190611d62565b5090565b5b80821115611d7b576000816000905550600101611d63565b5090565b6000611d92611d8d84612a2f565b612a0a565b90508083825260208201905082856020860282011115611db157600080fd5b60005b85811015611de15781611dc78882611f1b565b845260208401935060208301925050600181019050611db4565b5050509392505050565b6000611dfe611df984612a5b565b612a0a565b905082815260208101848484011115611e1657600080fd5b611e21848285612cec565b509392505050565b600081359050611e38816130e4565b92915050565b600082601f830112611e4f57600080fd5b8135611e5f848260208601611d7f565b91505092915050565b600081359050611e77816130fb565b92915050565b600081519050611e8c816130fb565b92915050565b60008083601f840112611ea457600080fd5b8235905067ffffffffffffffff811115611ebd57600080fd5b602083019150836001820283011115611ed557600080fd5b9250929050565b600082601f830112611eed57600080fd5b8135611efd848260208601611deb565b91505092915050565b600081359050611f1581613112565b92915050565b600081359050611f2a81613129565b92915050565b600060208284031215611f4257600080fd5b6000611f5084828501611e29565b91505092915050565b60008060408385031215611f6c57600080fd5b6000611f7a85828601611e29565b9250506020611f8b85828601611f1b565b9150509250929050565b600060208284031215611fa757600080fd5b600082013567ffffffffffffffff811115611fc157600080fd5b611fcd84828501611e3e565b91505092915050565b600060208284031215611fe857600080fd5b6000611ff684828501611e68565b91505092915050565b60006020828403121561201157600080fd5b600061201f84828501611e7d565b91505092915050565b60008060006040848603121561203d57600080fd5b600061204b86828701611e68565b935050602084013567ffffffffffffffff81111561206857600080fd5b61207486828701611e92565b92509250509250925092565b60006020828403121561209257600080fd5b60006120a084828501611f1b565b91505092915050565b600080604083850312156120bc57600080fd5b60006120ca85828601611f1b565b92505060206120db85828601611e29565b9150509250929050565b600080600080600060a086880312156120fd57600080fd5b600061210b88828901611f1b565b955050602061211c88828901611f06565b945050604086013567ffffffffffffffff81111561213957600080fd5b61214588828901611edc565b935050606061215688828901611f1b565b925050608061216788828901611f1b565b9150509295509295909350565b6000806040838503121561218757600080fd5b600061219585828601611f1b565b92505060206121a685828601611f1b565b9150509250929050565b60006121bc83836121dc565b60208301905092915050565b60006121d4838361257f565b905092915050565b6121e581612c3c565b82525050565b6121f481612c3c565b82525050565b600061220582612aac565b61220f8185612af2565b935061221a83612a8c565b8060005b8381101561224b57815161223288826121b0565b975061223d83612ad8565b92505060018101905061221e565b5085935050505092915050565b600061226382612aac565b61226d8185612b03565b935061227883612a8c565b8060005b838110156122a957815161229088826121b0565b975061229b83612ad8565b92505060018101905061227c565b5085935050505092915050565b60006122c182612ab7565b6122cb8185612b14565b9350836020820285016122dd85612a9c565b8060005b8581101561231957848403895281516122fa85826121c8565b945061230583612ae5565b925060208a019950506001810190506122e1565b50829750879550505050505092915050565b61233481612c4e565b82525050565b61234381612c4e565b82525050565b61235281612c5a565b82525050565b61236181612c64565b82525050565b600061237282612ac2565b61237c8185612b25565b935061238c818560208601612cfb565b61239581612ec7565b840191505092915050565b6123a981612cc8565b82525050565b60006123ba82612acd565b6123c48185612b36565b93506123d4818560208601612cfb565b6123dd81612ec7565b840191505092915050565b60006123f382612acd565b6123fd8185612b47565b935061240d818560208601612cfb565b61241681612ec7565b840191505092915050565b600061242e601683612b47565b915061243982612ed8565b602082019050919050565b6000612451601683612b47565b915061245c82612f01565b602082019050919050565b6000612474601e83612b47565b915061247f82612f2a565b602082019050919050565b6000612497601283612b47565b91506124a282612f53565b602082019050919050565b60006124ba602283612b47565b91506124c582612f7c565b604082019050919050565b60006124dd601483612b47565b91506124e882612fcb565b602082019050919050565b6000612500602c83612b47565b915061250b82612ff4565b604082019050919050565b6000612523601083612b47565b915061252e82613043565b602082019050919050565b6000612546602383612b47565b91506125518261306c565b604082019050919050565b6000612569601a83612b47565b9150612574826130bb565b602082019050919050565b6000610180830160008301516125986000860182612691565b50602083015184820360208601526125b082826123af565b91505060408301516125c56040860182612691565b5060608301516125d86060860182612691565b50608083015184820360808601526125f082826121fa565b91505060a083015184820360a086015261260a82826121fa565b91505060c083015161261f60c086018261232b565b5060e083015161263260e0860182612691565b50610100830151612647610100860182612691565b5061012083015161265c610120860182612691565b506101408301516126716101408601826121dc565b5061016083015161268661016086018261232b565b508091505092915050565b61269a81612cbe565b82525050565b6126a981612cbe565b82525050565b60006020820190506126c460008301846121eb565b92915050565b600060e0820190506126df600083018a6121eb565b6126ec6020830189612349565b6126f960408301886121eb565b61270660608301876121eb565b61271360808301866121eb565b61272060a0830185612358565b81810360c08301526127328184612367565b905098975050505050505050565b6000602082019050818103600083015261275a8184612258565b905092915050565b6000602082019050818103600083015261277c81846122b6565b905092915050565b6000602082019050612799600083018461233a565b92915050565b60006020820190506127b46000830184612349565b92915050565b60006060820190506127cf6000830186612349565b6127dc6020830185612349565b6127e960408301846126a0565b949350505050565b600060208201905061280660008301846123a0565b92915050565b6000602082019050818103600083015261282581612421565b9050919050565b6000602082019050818103600083015261284581612444565b9050919050565b6000602082019050818103600083015261286581612467565b9050919050565b600060208201905081810360008301526128858161248a565b9050919050565b600060208201905081810360008301526128a5816124ad565b9050919050565b600060208201905081810360008301526128c5816124d0565b9050919050565b600060208201905081810360008301526128e5816124f3565b9050919050565b6000602082019050818103600083015261290581612516565b9050919050565b6000602082019050818103600083015261292581612539565b9050919050565b600060208201905081810360008301526129458161255c565b9050919050565b600060208201905061296160008301846126a0565b92915050565b60006101408201905061297d600083018d6126a0565b818103602083015261298f818c6123e8565b905061299e604083018b6126a0565b6129ab606083018a6126a0565b6129b8608083018961233a565b6129c560a08301886126a0565b6129d260c08301876126a0565b6129df60e08301866126a0565b6129ed6101008301856121eb565b6129fb61012083018461233a565b9b9a5050505050505050505050565b6000612a14612a25565b9050612a208282612d60565b919050565b6000604051905090565b600067ffffffffffffffff821115612a4a57612a49612e98565b5b602082029050602081019050919050565b600067ffffffffffffffff821115612a7657612a75612e98565b5b612a7f82612ec7565b9050602081019050919050565b6000819050602082019050919050565b6000819050602082019050919050565b600081519050919050565b600081519050919050565b600081519050919050565b600081519050919050565b6000602082019050919050565b6000602082019050919050565b600082825260208201905092915050565b600082825260208201905092915050565b600082825260208201905092915050565b600082825260208201905092915050565b600082825260208201905092915050565b600082825260208201905092915050565b6000612b6382612cbe565b9150612b6e83612cbe565b9250827fffffffffffffffffffffffffffffffffffffffffffffffffffffffffffffffff03821115612ba357612ba2612e0b565b5b828201905092915050565b6000612bb982612cbe565b9150612bc483612cbe565b9250817fffffffffffffffffffffffffffffffffffffffffffffffffffffffffffffffff0483118215151615612bfd57612bfc612e0b565b5b828202905092915050565b6000612c1382612cbe565b9150612c1e83612cbe565b925082821015612c3157612c30612e0b565b5b828203905092915050565b6000612c4782612c9e565b9050919050565b60008115159050919050565b6000819050919050565b60007fffffffff0000000000000000000000000000000000000000000000000000000082169050919050565b600061ffff82169050919050565b600073ffffffffffffffffffffffffffffffffffffffff82169050919050565b6000819050919050565b6000612cd382612cda565b9050919050565b6000612ce582612c9e565b9050919050565b82818337600083830152505050565b60005b83811015612d19578082015181840152602081019050612cfe565b83811115612d28576000848401525b50505050565b60006002820490506001821680612d4657607f821691505b60208210811415612d5a57612d59612e69565b5b50919050565b612d6982612ec7565b810181811067ffffffffffffffff82111715612d8857612d87612e98565b5b80604052505050565b6000612d9c82612cbe565b91507fffffffffffffffffffffffffffffffffffffffffffffffffffffffffffffffff821415612dcf57612dce612e0b565b5b600182019050919050565b6000612de582612cbe565b9150612df083612cbe565b925082612e0057612dff612e3a565b5b828206905092915050565b7f4e487b7100000000000000000000000000000000000000000000000000000000600052601160045260246000fd5b7f4e487b7100000000000000000000000000000000000000000000000000000000600052601260045260246000fd5b7f4e487b7100000000000000000000000000000000000000000000000000000000600052602260045260246000fd5b7f4e487b7100000000000000000000000000000000000000000000000000000000600052604160045260246000fd5b6000601f19601f8301169050919050565b7f43616c6c6572206e6f74204169726e6f64652052525000000000000000000000600082015250565b7f57696e6e65727320616c7265616479207069636b656400000000000000000000600082015250565b7f456e74727920636f756e74206d757374206265206174206c6561737420310000600082015250565b7f4e6f7420656e6f75676820656e74726965730000000000000000000000000000600082015250565b7f4f6e6c7920726166666c65206f776e65722063616e207069636b2077696e6e6560008201527f7273000000000000000000000000000000000000000000000000000000000000602082015250565b7f4e6f20737563682072657175657374206d616465000000000000000000000000600082015250565b7f506c656173652073656e6420736f6d652066756e647320746f2074686520737060008201527f6f6e736f722077616c6c65740000000000000000000000000000000000000000602082015250565b7f526166666c6520697320636c6f73656400000000000000000000000000000000600082015250565b7f57696e6e657220636f756e74206d75737420626520677265617465722074686160008201527f6e20300000000000000000000000000000000000000000000000000000000000602082015250565b7f456e74727920707269636520646f6573206e6f74206d61746368000000000000600082015250565b6130ed81612c3c565b81146130f857600080fd5b50565b61310481612c5a565b811461310f57600080fd5b50565b61311b81612c90565b811461312657600080fd5b50565b61313281612cbe565b811461313d57600080fd5b5056fea2646970667358221220ecb862ff67901c0cc2a1c5700f9005dad7fabd7dd211f8e0327b5333ac1b4cc964736f6c63430008040033",
  "linkReferences": {},
  "deployedLinkReferences": {}
}